:020000040800F2
:10000000C8600020B50200089B2400086F23000888
:1000100099240008C90900080D35000800000000F7
:100020000000000000000000000000001D020008A9
:10003000310A00080000000061020008212E0008BB
:10004000CF020008CF020008CF020008CF0200084C
:10005000CF020008CF020008CF020008CF0200083C
:10006000CF020008CF020008CF020008ED09000807
:10007000CF020008CF020008CF020008CF0200081C
:10008000CF020008CF020008CF020008CF0200080C
:10009000CF020008CF020008CF020008CF020008FC
:1000A000CF020008CF020008CF020008CF020008EC
:1000B000CF020008CF020008CF020008CF020008DC
:1000C000CF020008CF020008CF020008CF020008CC
:1000D000CF0200084D330008A9330008053400089A
:1000E000CF020008CF020008CF020008CF020008AC
:1000F000CF020008CF020008CF020008CF0200089C
:10010000CF020008CF020008CF020008CF0200088B
:10011000CF020008CF020008CF020008CF0200087B
:10012000CF020008CF020008CF020008CF0200086B
:1001300000F002F800F062F80AA090E8000C824497
:100140008344AAF10107DA4501D100F057F8AFF274
:10015000090EBAE80F0013F0010F18BFFB1A43F0A5
:1001600001031847D07A0000F07A00000A444FF0EB
:10017000000C10F8013B13F0070408BF10F8014B06
:100180001D1108BF10F8015B641E05D010F8016B4B
:10019000641E01F8016BF9D113F0080F1EBF10F8AF
:1001A000014BAD1C0C1B09D16D1E58BF01F801CBD2
:1001B000FAD505E014F8016B01F8016B6D1EF9D555
:1001C0009142D6D37047000000230024002500266A
:1001D000103A28BF78C1FBD8520728BF30C148BFAA
:1001E0000B607047642900F0BD80732900F02682FF
:1001F000002070471FB51FBD10B510BD00F0B3FA49
:100200001146FFF7F7FF03F0EFF900F0D1FA03B45E
:10021000FFF7F2FF03BC03F08AF90000224B1968D4
:100220000868B0E8F00F80F30988BFF36F8F4FF0D4
:10023000000080F311884EF00D0E704700000000A2
:1002400006480068006880F3088862B661B6BFF3AC
:100250004F8FBFF36F8F00DF00BF00BF08ED00E0DE
:10026000EFF30980BFF36F8F0F4B1A6820E9F00F8F
:10027000106008B54FF0500080F31188BFF34F8F26
:10028000BFF36F8F04F0D4FA4FF0000080F31188B1
:10029000BDE8084019680868B0E8F00F80F30988E5
:1002A000BFF36F8F704700BFF8010020EFF30580A8
:1002B000704700000948804709480047FEE7FEE70D
:1002C000FEE7FEE7FEE7FEE7FEE7FEE7FEE7FEE706
:1002D00004480549054A064B70470000392E0008BE
:1002E00031010008C85A0020C8600020C85C002006
:1002F000C85C0020704700000FB4044910B503AA81
:10030000029800F09FF910BC5DF814FB80010020FA
:1003100070B50C460546012A05D02878800600D520
:10032000EA69002302E0012305E05B1C934202D24C
:10033000E05C0028F9D1A869E618C01AA861286A0B
:10034000184428622846AFF3008004E0D5E9012173
:1003500014F8010B9047B442F8D32846AFF300805D
:1003600070BD00002DE9F041064600241068752993
:10037000314616A510D0AFF30080002802DA4042C3
:1003800013A507E031688A0701D512A502E04907E5
:1003900004D511A5012401E0AFF3008000210A2259
:1003A00006F1240709E0B0FBF2FCB0FBF2F302FB1C
:1003B0001C00303078541846491C0028F3D12346DD
:1003C0002A463046BDE8F04100F0B5B80000000014
:1003D0002D0000002B000000200000002DE9F0415E
:1003E0000F460546002028622846E968884770B312
:1003F000252805D0D5E901219047286A401CF2E75D
:10040000E9682846002688476C2804460AD0682CEC
:1004100008D04C2C35D06A2C31D0742C31D07A2CA9
:100420002FD016E0E968064628468847B0420446C1
:1004300008D16C2E23D04FF480662846E96888479F
:10044000044606E06C2E03D04FF4807601E01EE0F7
:100450004026E4B1A4F14100192802D8203446F422
:1004600000663A46214628462E60FFF7BBFE60B183
:10047000012808D0FF1D27F007070837B4E78026BA
:10048000DBE70026D9E73F1DAEE72046B2E7286A42
:10049000BDE8F081032A40F2308010F0030C00F038
:1004A000158011F8013BBCF1020F624498BF11F8AE
:1004B00001CB00F8013B38BF11F8013BA2F1040267
:1004C00098BF00F801CB38BF00F8013B11F00303DF
:1004D00000F0CA80083AC0F0088051F8043B083A9E
:1004E00051F804CBA0E80810F5E7121D5CBF51F8E5
:1004F000043B40F8043BAFF30080D20724BF11F85F
:10050000013B11F801CB48BF11F8012B24BF00F8C3
:10051000013B00F801CB48BF00F8012B704702F007
:10052000FF0343EA032242EA024200F0D1B87047D7
:100530007047704770472DE9F0470D46994692463F
:10054000044600F124080168880604D5E06921F01A
:100550001001216000E00120A84201DD471B00E0FE
:100560000027A1697A1902EB0900081AA061207816
:10057000C00602D42046AFF30080002608E0D4E98C
:1005800001211AF806009047206A401C761C206260
:100590004E45F4DB2078C0060AD52046AFF3008034
:1005A00006E0D4E9012130209047206A401C2062F7
:1005B000381EA7F10107F4DC07E0D4E9012118F89F
:1005C00005009047206A401C2062281EA5F1010505
:1005D000F3DC2046AFF300802078000602D502202D
:1005E000BDE8F0870120FBE701694A1C0261087839
:1005F000704700B58FB0CDE9013100210591054963
:100600007944CDE9031011466846FFF7E7FE0FB0C5
:1006100000BD0000E5FFFFFF10B5436913B1AFF364
:10062000008001E0FFF774FE012010BD127800F198
:1006300024010A7000224A700122EDE711684FF090
:10064000FF32E9E7074B70B50D467B44FFF7D1FF5A
:100650000446284600F05CF810B14FF0FF3070BD42
:10066000204670BD832F000010B5203AC0F00B80EB
:10067000B1E81850203AA0E81850B1E81850A0E8A6
:100680001850BFF4F5AF5FEA027C24BFB1E8185000
:10069000A0E8185044BF18C918C0BDE810405FEA70
:1006A000827C24BF51F8043B40F8043B08BF7047EC
:1006B000D20728BF31F8023B48BF11F8012B28BFF1
:1006C00020F8023B48BF00F8012B70474FF00002B2
:1006D0000429C0F0128010F0030C00F01F80CCF150
:1006E000040CBCF1020F18BF00F8012BA8BF20F8C2
:1006F000022BA1EB0C0100F011B85FEAC17C24BF12
:1007000000F8012B00F8012B48BF00F8012B7047BF
:10071000007B00F0800070474FF0000200B51346E8
:1007200094469646203922BFA0E80C50A0E80C5011
:10073000B1F12001BFF4F7AF090728BFA0E80C50C2
:1007400048BF0CC05DF804EB890028BF40F8042BBB
:1007500008BF704748BF20F8022B11F0804F18BF28
:1007600000F8012B7047754600F02CF8AE460500E6
:100770006946534620F00700854618B020B5FFF7BC
:10078000A7FDBDE820404FF000064FF000074FF0F6
:1007900000084FF0000B21F00701AC46ACE8C0099F
:1007A000ACE8C009ACE8C009ACE8C0098D467047A8
:1007B00010B50446AFF300802046BDE81040FFF7B7
:1007C00026BD000000487047645A00201FB5254E22
:1007D000234803907069804701200090182304216A
:1007E000746A21A20020A047DFF884A0214F4FF0B7
:1007F00000084FF018096FF07E5B00BFBAF80440A4
:10080000CDE900980423D6F830C0224619462820A6
:10081000E047AC4201D9601B00E0281B05F012F84C
:10082000039905F027F800EB0B01B94202D2210A27
:100830008DF808108DF8094004F0E8FF8DF80A00E3
:100840000D4802AA032103684AF6012098470120B7
:1008500000F0F0F825460A2003F02CFECEE7000059
:100860002A67B73D9C010020416E676C650000005F
:1008700004000020FFFFF903DC01002070B50446EE
:1008800000688168C943C9071CD1816821F0010152
:10089000816000F0F5FE05460FE000BF00F0F0FEBD
:1008A000401B022809D9A06A40F01000A062E06A4B
:1008B00040F00100E062012070BD20688068C04304
:1008C000C007EBD0002070BD10B50146406A826AB7
:1008D00012F0500F05D0006A026BBDE810400846C8
:1008E0001047816A41F40071816201688968C1F32F
:1008F000424107290CD1017B51B9816A21F48071F1
:100900008162816AC90403D4816A41F00101816274
:1009100000F026F910BD10B5406A816A41F040012F
:100920008162C16A41F00401C16200F01BF910BD8F
:1009300010B5406A00F015F910BD0000F8B50026AA
:100940000446009600688168C943C90728D08168B9
:1009500041F001018160134813490068B0FBF1F0D8
:1009600000E0401E00900028FBD100F089FE054603
:1009700011E000BF00F084FE401B02280BD9A06AE2
:1009800040F01000A062E06A40F00100E06284F8EC
:1009900024600120F8BD20688068C043C007E9D109
:1009A0000020F8BD1800002040420F00044C054D07
:1009B0006068E9688847C82003F07CFDF8E700001C
:1009C000F001002084010020FEE70000054C064DE8
:1009D000E06F022801DD28688047142003F06AFDDB
:1009E000F6E7000024000020F0010020014800F09C
:1009F000A7BB00006C03002030B590F840500124E4
:100A0000AC40C56B6C60046863604368102B03687E
:100A100003D099600068C26030BD9A600068C16010
:100A200030BD020A62F3070160F30F2188B27047FC
:100A3000704700000EB56946009001200190072024
:100A40000290074800F00EF8054800F0FBF90A2173
:100A5000034800F05FF9024800F085F880B20EBD4F
:100A60003C030020F8B50024009490F8242025468B
:100A7000012A12D0012280F824204A681F23072A65
:100A80000DD20668776B521E02EB820293409F43A1
:100A90000B6893401F43776319E00220F8BD066896
:100AA0000D2A0AD2376BD21F02EB820293409F437A
:100AB0000B6893401F43376309E0F76A0D3A02EB76
:100AC000820293409F430B6893401F43F7620A687A
:100AD000072306680A2A0AD3F7680A3A02EB420299
:100AE00093409F438B6893401F43F76008E037694A
:100AF00002EB420293409F438B6893401F43376150
:100B00000A68102A01D0112A20D1124B02689A4299
:100B100017D193681B0219D4936843F400039360C0
:100B20000968102912D10C490C4A0968B1FBF2F18D
:100B300001EB8101490000E0491E00910029FBD131
:100B400004E0816A41F020018162012480F8245090
:100B50002046F8BD002401401800002040420F004C
:100B60007047704770470068C06C70472DE9F041CE
:100B700004004FF000057FD0A06A002628B9E66285
:100B800084F82460204600F081F82046FFF776FEC6
:100B9000A16AC90600D420B1A06A40F01000A0628A
:100BA0006AE0A16A21F4885141F00201A16233494F
:100BB00023688B42E16904D1B1F5402F01D14FF494
:100BC0000021277B4FF4807C41EA470261680A4399
:100BD000A168614508D0012906D0002194F814E0ED
:100BE000BEF1010F02D00AE06146F7E7C7B1A76A7C
:100BF00047F02007A762E76A47F00107E7625F68EE
:100C000027F469470F435F60236899681C4F394098
:100C100011439960A16861450BD0012909D00CE00E
:100C2000DFF860E0A7690EEB47370F4347F4006138
:100C3000E5E7218A0D05A5F580152168CB6A23F427
:100C400070032B43CB62216889680F4B1940914296
:100C500008D1E662A16A21F0020141F00101A1621E
:100C6000BDE8F081A06A20F0020040F01000A06210
:100C7000E06A40F00100E0620120F1E7003C014041
:100C8000FDF7E1FF00E0FFFFFE0E1FFF70B586B02D
:100C900000250646009501950295039500681849C0
:100CA00088422BD11749886940F4007088618869AF
:100CB00000F400700490886940F00400886188693D
:100CC000694600F004000490022000900320019087
:100CD0000D4800F0CFFB0E4C0C48C4E90005802005
:100CE000C4E9025080002061800060612020C4E9D6
:100CF0000605204600F048FB3462666206B070BD0F
:100D00000024014000100240000801400800024099
:100D10006C0300202DE9F84300260D46044600969A
:100D200000F0AEFC804620688168C90508D5A06A3D
:100D300040F02000A06284F824600120BDE8F88320
:100D40004168C90503D4C06A10F4700F26D0022090
:100D500000F016FD38490968B1FBF0F72068036917
:100D600036490B424FEA61014FEAA1121BD1C36819
:100D70004FEA611C13EA0C0F15D103690B4221D114
:100D8000C06810421ED114201FE0681C06D045B375
:100D900000F076FCA0EB0800A84222D8206800688A
:100DA0008007F2D52AE003690B4202D1C1681142E3
:100DB00006D0026922490A4206D1C068084203D11E
:100DC000542002E0292000E0FC204743009813E073
:100DD000681C0ED02DB100F053FCA0EB0800A84217
:100DE00007D9A06A40F00400A06284F824600320C0
:100DF000A4E70098401C0090B842E9D321686FF046
:100E000012000860A06A40F40070A0622068806848
:100E1000C0F3424007280CD1207B50B9A06A20F4CF
:100E20008070A062A06AC00403D4A06A40F00100F0
:100E3000A062002082E700001800002024499224CC
:100E40004992240070B5044690F8240001280DD082
:100E5000012084F824002046FFF770FD02004FF0C7
:100E6000000005D084F82400104670BD022070BD3B
:100E7000A16A40F20123994341F48071A1621F4DA0
:100E800023681F49AB4218D10E6816F4702F14D096
:100E9000A66A46F48016A6620E68760505D5A66A8F
:100EA00026F4005646F48056A662A66AF6040AD5D1
:100EB000E66A26F00606E66206E0A66A26F48016D2
:100EC000A6625E68E9E7E06284F824006FF0020041
:100ED000186020688368C3F34243072B05D1A842FA
:100EE00008D1096811F4702F04D0816841F4801191
:100EF0008160B9E7816841F4A001F9E70028014069
:100F0000042401402DE9F047894604463B49006826
:100F10003B4F0E1D9046884201D0B84207D1306841
:100F200010F4702F03D001252846BDE8F08794F80F
:100F3000240001280CD0012084F824002046FFF76B
:100F4000FDFC05004FF0000004D084F82400EBE71E
:100F50000220EAE7A16A40F60162914341F4807100
:100F6000A1622168B94218D1326812F4702F14D0EE
:100F7000A16A41F48011A1623168490505D5A16AD1
:100F800021F4005141F48051A162A16AC9040AD53B
:100F9000E16A21F00601E16206E0A26A22F4801211
:100FA000A2624968E9E7E06284F82400216A1548F2
:100FB0008862216A1448C862216A1448086321685B
:100FC0006FF0020008602068816841F480718160E0
:100FD000216843464A464C31206A00F013FA2068E3
:100FE0008168C1F342410729816803D041F480112F
:100FF000816099E741F4A001FAE700000024014074
:1010000000280140C9080008310900081709000834
:101010002DE9F05F90F821100024022903D004216B
:101020008163012485E001680A6822F00E020A60EB
:1010300001680A6822F001020A603F4E3E4FB21575
:10104000DFF8F4C0DFF8F090DFF8ECA0DFF8E8B0EC
:10105000DFF8E4E00168783F13011502ACF1640C9D
:10106000A9F15009AAF13C0AABF1280BAEF1140E1C
:101070004FF48018B14227D9B9420ED0614512D041
:1010800049451DD0514518D0594518D0714501D159
:10109000424615E0294EB14201D1012210E0274E0F
:1010A0001436B14201D110220AE0244E2836B14252
:1010B00006D0224A3C32914201D11A4600E02A462B
:1010C0001E49091F0A602BE0B94213D0614517D0B1
:1010D000494522D051451DD059451DD0714501D1FA
:1010E00042461AE0B14202D14FF0807215E0134E31
:1010F000B14201D1012210E0104E1436B14201D1AB
:1011000010220AE00D4E2836B14206D00B4A3C327E
:10111000914201D11A4600E02A46074980394A60C7
:10112000012180F82110002180F82010416B01B1CD
:1011300088472046BDE8F09F800002400804024036
:101140002DE9F05FC16B0A6801680B68046C4FF011
:10115000040808FA04F8844D844E854FDFF814C261
:10116000DFF81492DFF814A2DFF814B2DFF814E20B
:1011700018EA020F65D05FEA437862D50A689206E2
:1011800003D40A6822F004020A60DFF8F0814FF409
:101190008062016808F1140813011402414524D942
:1011A000A9420DD0B1420FD0B9421AD0614515D035
:1011B000494515D0514501D1120312E0594501D1DD
:1011C00004220EE0714501D140220AE06D4D143534
:1011D000A94206D06B4A2832914201D11A4600E05A
:1011E00022466749091F0A6029E0A94213D0B1428B
:1011F00015D0B94220D061451BD049451BD051457F
:1012000002D14FF4800217E0414502D14FF08062D5
:1012100012E0594501D104220EE0714501D140226E
:101220000AE0584D1435A94206D0564A2832914258
:1012300001D11A4600E022464B4908394A60C16A8A
:1012400071E04FF0020808FA04F818EA020F70D0B3
:101250005FEA83786DD50A68920606D40A6822F0A0
:101260000A020A60012180F82110DFF810814FF492
:101270000072016808F1140813011402414524D9D1
:10128000A9420DD0B1420FD0B9421AD0614515D054
:10129000494515D0514501D1120312E0594501D1FC
:1012A00002220EE0714501D120220AE0354D1435AD
:1012B000A94206D0334A2832914201D11A4600E0B1
:1012C00022462F49091F0A6029E0A94213D0B142E2
:1012D00015D0B94220D061451BD049451BD051459E
:1012E00002D14FF4001217E0414502D14FF00072D5
:1012F00012E0594501D102220EE0714501D12022B0
:101300000AE0204D1435A94206D01E4A28329142E7
:1013100001D11A4600E02246134908394A600021EB
:1013200080F82010816A00291CD0BDE8F05F0847D2
:10133000FFE70825A540154214D01A0712D50A6800
:1013400022F00E020A6090F84020C36B012101FADE
:1013500002F25A60816380F82110002180F8201089
:10136000016BE0E7BDE8F09F080002401C0002406E
:101370003000024044000240580002406C0002402D
:10138000080402401C04024030B560B11A4B0268E8
:1013900014219A4209D2194B1344B3FBF1F189008D
:1013A000016417490AE0012030BD134B5B4213442E
:1013B000B3FBF1F1890001640F490839C1630221CF
:1013C00080F82110136843F6F0718B43F0E90114A3
:1013D0002143D0E902452C43214304692143446958
:1013E0002143846921431943116000214163012293
:1013F00042770177084630BD08040240F8FFFDBF80
:101400000000024070B5044690F820000025012835
:101410000CD0012084F8200094F821600020012ED7
:1014200006D084F820000225284670BD022070BD39
:10143000022684F82160A0632068066826F0010671
:1014400006602046FFF7D8FAE06A002820680168A5
:1014500002D041F00E0106E021F004010160206895
:10146000016841F00A0101602068016841F0010152
:101470000160D9E72DE9F84FDFF8C891002409F1A0
:10148000040A0AF1040B23460F270BF1040ED1E0E6
:101490000125A54006EA0502AA4276D1DFF8A8C1D7
:1014A0004E68A6EB0C0866452BD00DDC032E34D01D
:1014B00005DC36B3012E19D0022E2FD11BE0112EE0
:1014C00016D0122E2AD119E0B8F5881F19D006DCE3
:1014D000B8F5803F15D0B8F5801F1FD111E0B8F5E1
:1014E000001F0ED0B8F5041F18D10AE0CB6815E034
:1014F000CB681B1D12E0CB6808330FE0CB680C33C0
:101500000CE08B682BB1012B4FF0080303D0456131
:1015100004E0042302E0056100E00023FF2A01D873
:10152000064601E000F104064FEA840501D9A5F161
:101530002005D6F8008007FA05FC28EA0C0803FA13
:1015400005F548EA0508C6F800804D68ED0070D53D
:101550003E4DAE6946F00106AE61AD6924F003066A
:1015600005F0010500953A4D06EB050CDCF8085036
:10157000A607360F07FA06F825EA0805DFF8D48033
:10158000404503D14FF0000825E052E0DFF8C88065
:10159000404502D14FF001081DE0DFF8C080404512
:1015A00002D14FF0020816E0DFF8B480404502D1C6
:1015B0004FF003080FE0DFF8AC80404502D14FF058
:1015C000040808E0DFF8A080404502D14FF005088C
:1015D00001E04FF0060808FA06F848EA0508CCF8DA
:1015E00008804D68D9F80060ED034D4601D51643DB
:1015F00000E096432E604D68DAF80060AD03554672
:1016000001D5164300E096432E604D68DBF800607C
:10161000ED025D4601D5164300E096432E604D680D
:10162000DEF80060AD02754601D5164300E0964332
:101630002E60641C0A681646E2407FF429AFBDE8BC
:10164000F88F00000004014000001110001002405B
:101650000000014000080140000C01400010014062
:101660000014014000180140001C0140806808403F
:1016700000D0012070470AB1016170470904FBE7FF
:1016800001488068704700000C0000200248816813
:1016900002781144816070470C000020074810B5A3
:1016A000016841F010010160052000F057F80F209B
:1016B00000F006F800F024F8002010BD00200240E1
:1016C00070B50D4D04464FF47A712878B1FBF0F0F7
:1016D0000A490968B1FBF0F000F04AFB48B9102C48
:1016E00007D200222146501E00F018F800206C603E
:1016F00070BD012070BD00000C000020180000200B
:101700007047002809DB00F01F02012191404009C9
:10171000800000F1E020C0F800117047F0B40E4BDB
:101720001B680C46C3F30223C3F10705042D00D93F
:101730000425191D072901D2002300E0DB1E012624
:1017400006FA05F1491E214099409E40761E16403A
:101750003143F0BC01F0DBBE0CED00E0064900F0C7
:10176000070208684FF6FF03184040EA0220034AC8
:1017700010430860704700000CED00E00000FA051F
:1017800010B52CA401461DCC86B08DE81D002DA0FF
:101790002D4C00680490002004292FD00BDC012977
:1017A0002FD0022928D100F001F96168C1F38131FD
:1017B000491C49001EE0082920D010291CD161686D
:1017C0002268D20118D5C1F38342C9031DF8020073
:1017D00009D5616804AAC1F34041515C1B4AB2FBC0
:1017E000F1F1484301E01A4948436168490203D4D2
:1017F00040000321B0FBF1F006B010BD00F0E6F8A8
:10180000FAE7226AC2F30121012903D1920701D527
:10181000C803F1E7022905D1626A920702D549F6A9
:101820004040E9E70329E7D121688903E4D54FF275
:101830002440E1E702030405060708090A0B0C0D22
:101840000E0F1010010200000010024000127A007A
:1018500000093D002DE9F0470F46050061D0434ED9
:10186000306800F00700B84209D2306820F0070065
:1018700038433060306800F00700B84251D1286822
:101880003B4C810712D5400703D5606840F4E06007
:1018900060602878000703D5606840F4605060609D
:1018A0006068A96820F0F000084360602878C007ED
:1018B00028D06868012810D02168022810D0890734
:1018C00000292EDA616821F0030101436160FFF70E
:1018D000D7FE804641F288390DE021688903EFE7A1
:1018E0008901EDE7FFF7CCFEA0EB0801494502D9DD
:1018F0000320BDE8F0876068696800F00C00B0EB79
:10190000810FEFD1306800F00700B8420BD9306882
:1019100020F0070038433060306800F00700B8421C
:1019200001D00120E5E72878400705D56068E9681F
:1019300020F4E060084360602878000706D56068FE
:10194000296920F4605040EAC100606000F03EF870
:101950006168084AC1F30311515CC8400649086038
:1019600006480068FFF7ACFE0020C2E700200240F6
:1019700000100240EC5A000818000020100000205F
:10198000014800687047000018000020044805491D
:1019900000684968044AC1F30221515CC84070479D
:1019A0001800002000100240FC5A000804480549B5
:1019B00000684968044AC1F3C221515CC8407047BD
:1019C0001800002000100240FC5A000812A185B047
:1019D0000FC98DE80F0014A0144A006804905168E4
:1019E000134801F00C03042B10D0082B0ED1C1F3C7
:1019F0008343C9031DF803000AD5516804AAC1F343
:101A00004041515C0A4A5043B0FBF1F005B07047C9
:101A100008494843FAE700000203040506070809DD
:101A20000A0B0C0D0E0F10100102000000100240F6
:101A300000127A0000093D002DE9F84F040070D033
:101A40002078C04DC00749D06868C0F381000128E4
:101A500007D06868C0F38100022809D16868C00314
:101A600006D52868800339D560680028E7D035E0BE
:101A70006068B0F5803F0BD010B1B0F5A02F11D049
:101A8000286820F480302860286820F4802002E054
:101A9000286840F480302860606890B1FFF7F0FD5E
:101AA00006460AE0286840F480202860F0E700BF7E
:101AB000FFF7E6FD801B642873D828688003F7D5FC
:101AC0000CE0FFF7DDFD064605E000BFFFF7D8FD9F
:101AD000801B6428F0D828688003F7D420789A4EB9
:101AE00080074FF001094FF0000839D5686810F001
:101AF0000C0F07D06868C0F38100022809D168681C
:101B0000C00306D42868800714D52069012808D1AD
:101B100010E02069B0B1C6F80090FFF7B1FD0746AC
:101B200005E00AE1FFF7ACFDC01B0228C4D8286815
:101B30008007F7D52868616920F0F80040EAC10005
:101B400028600DE0C6F80080FFF79AFD074604E024
:101B5000FFF796FDC01B022823D828688007F7D41A
:101B6000207800072CD57948A169D9B1C0F8009038
:101B7000FFF786FD074604E0FFF782FDC01B022841
:101B80000FD8686A8007F7D571484FF4FA5100689A
:101B9000B0FBF1F0009000BF0098411E0091FAD216
:101BA0000EE080E0C0F80080FFF76AFD074604E021
:101BB000FFF766FDC01B022875D8686A8007F7D456
:101BC0002078400760D5E8690027C00008D4E8699C
:101BD00040F08050E861E869012700F080500090F3
:101BE0005C480168C90513D40168834641F48071DB
:101BF0000160FFF745FD824606E000BFFFF740FDAC
:101C0000A0EB0A0064284ED8DBF80000C005F5D52B
:101C1000E06801280AD008B1052813D0286A20F00E
:101C200001002862286A20F0040002E0286A40F0DF
:101C300001002862E06841F2883B98B1FFF720FD7F
:101C400082460BE0286A40F004002862EEE700BFFD
:101C5000FFF716FDA0EB0A0159455AD8286A8007FC
:101C6000F6D50CE0FFF70CFD824605E0FFF708FD16
:101C7000A0EB0A0159454CD8286A8007F6D41FB159
:101C8000E86920F08050E861E06988B36968C1F3D1
:101C90008101022944D00228C6F8608004D0FFF7F1
:101CA000EFFC044638E034E0FFF7EAFC074604E0C6
:101CB000FFF7E6FCC01B02282BD828688001F7D468
:101CC000206AB0F5803F05D16868A16820F4003033
:101CD00008436860D4E908010843696821F4741175
:101CE00008436860C6F86090FFF7CAFC044606E047
:101CF00025E000BFFFF7C4FC001B022809D82868B4
:101D00008001F7D51BE000BFFFF7BAFC001B0228DB
:101D100002D90320BDE8F88F28688001F4D40EE0D2
:101D20000128F7D06868226A00F48031914204D11A
:101D3000616A00F47010884201D00120EAE70020B7
:101D4000E8E70000001002400000424280044242E6
:101D500018000020007000404FF0E02104280869BE
:101D600003D020F004000861704740F00400FAE757
:101D700010B5401EB0F1807F01D3012010BD4FF09F
:101D8000E02460610F21601701F0C1FB0020A06119
:101D900007202061002010BD70B5044690F83C007B
:101DA0000D4601280DD0012684F83C60022084F8FD
:101DB0003D0042B1042A18D0082A2AD00C2A4DD15D
:101DC00039E0022070BD206801F00EF920688169B9
:101DD00041F0080181612068816921F0040181617D
:101DE000206881692A69114311E0206801F02CF90B
:101DF0002068816941F4006181612068816921F472
:101E000080618161206881692A6941EA02218161DA
:101E100024E0206801F04EF92068C16941F0080112
:101E2000C1612068C16921F00401C1612068C169F4
:101E30002A69114311E0206801F070F92068C16936
:101E400041F40061C1612068C16921F48061C16110
:101E50002068C1692A6941EA0221C16184F83D60B4
:101E6000002084F83C0070BD10B5040003D094F845
:101E70003D0010B107E0012010BD002084F83C00B7
:101E8000204600F00DF8022084F83D00211D206856
:101E900001F056F8012084F83D00002010BD00003C
:101EA0002DE9F04707460068DFF8E090384C01253F
:101EB000022686B04FF00308B0F1804F17D1E069D9
:101EC00040F00100E061E06900F001000490A069C9
:101ED00040F00400A061A069CDE9005600F00400C4
:101EE0000295CDE9038069464846FFF7C3FA2949C0
:101EF0003868DFF8A4A0884228D1E06940F00200E9
:101F0000E061E06900F002000490A06940F0040084
:101F1000A061A06900F004000490A06940F00800EE
:101F2000A061A069CDE9025800F008000490C0202B
:101F3000CDE9000669464846FFF79CFACDE902580C
:101F4000CDE9008669465046FFF794FA1349386890
:101F5000884218D1E06940F00400E061E06900F0D7
:101F600004000490A06940F00800A061A069CDE9D8
:101F7000025800F0080004904020CDE900066946B0
:101F80005046FFF777FA06B0BDE8F0870008014039
:101F90000010024000040040000C01400008004016
:101FA00010B504460068012201F010F80B492068C2
:101FB000884202D00A49884203D1416C41F4004171
:101FC00041642068816801F00701062903D0016897
:101FD00041F001010160002010BD0000002C014013
:101FE00000340140704710F8391F407808437047AB
:101FF00070B5026804461068D168536910F00F0F7D
:1020000050D003F0010501F4907635435DD0C2074E
:1020100005D0CA0503D5E26B42F00102E263420734
:1020200005D5DA0703D0E26B42F00202E2638207D1
:1020300005D5DA0703D0E26B42F00402E26302073F
:1020400005D5DA0703D0E26B42F00802E263E26BE7
:10205000002A33D0800604D5880602D5204601F038
:102060009BF820684069E16BC0F38010090700D439
:1020700028B3204601F082F82068416949061AD544
:10208000416921F040014161606BA0B11B4941638E
:10209000606BFEF7BDFF002810D0606B416BBDE8A0
:1020A00070400847830610D58B060ED52046BDE844
:1020B000704001F071B82046FFF794FF70BD2046D4
:1020C000FFF790FF0020E06370BD030606D50B0606
:1020D00004D52046BDE8704001F006B94006F3D5AE
:1020E0004806F1D5D168204621F04001D160202179
:1020F00084F8391000F03AF970BD00006D31000825
:1021000070B5040004D094F83900002510B106E041
:10211000012070BD84F83850204600F023F82420B8
:1021200084F839002068C16821F40051C16020465C
:1021300001F07EF82068016921F490410161206876
:10214000416921F02A0141612068C16841F40051D0
:10215000C160E563202084F8390084F83A0000204B
:1021600070BD0000F0B50768DFF840C10220002410
:102170004F49012203234F4D460285B067452DD1BB
:102180008F6947F004078F618F6907F00407049790
:102190008F6947F480478F618F6907F48047049700
:1021A0008F6947F001078F618969CDE9022301F04A
:1021B000010104910102CDE9001069462846FFF7AC
:1021C00059F9CDE9006469462846FFF753F92520FF
:1021D000FFF797FA03221146252031E0DFF8D8C037
:1021E000674531D18E6946F004068E618E6906F02E
:1021F00004060496CE6946F40036CE61CE6906F434
:10220000003604968E6946F001068E618969CDE933
:10221000022301F0010104910421CDE90010694677
:102220002846FFF727F90820CDE90004694628462B
:10223000FFF720F92620FFF764FA03221146262033
:10224000FFF76CFA05B0F0BD1C4DAF42FAD18D69B5
:1022500045F008058D618D6905F008050495CD6987
:1022600045F48025CD61CD6905F4802504958D69FF
:1022700045F001058D618969009601F00101CDE904
:102280000331CDE901020E4D69462846FFF7F2F809
:10229000E814CDE9000469462846FFF7EBF827204B
:1022A000FFF72FFA032211462720C9E70038014023
:1022B0000010024000080140004400400048004077
:1022C000000C014090F83A30202B22D1F9B1F2B144
:1022D00090F83830012B1CD081628285C2850021A4
:1022E000C163222280F83A2080F838100168CA6859
:1022F00042F48072CA6001684A6942F001024A6190
:102300000068C16841F02001C160002070470120D1
:102310007047022070470000104A0168104891423F
:102320000BD1C36F00F1180290F881109954C26F5D
:10233000521CC2670B4801607047084A0A4B121DC5
:10234000994202D190F8EC0005E0064B1B1F994220
:10235000F2D190F85701106070470000003801403A
:102360002400002004480040004400407047FEE77D
:102370000C4800B5816985B041F008018161806930
:10238000694600F0080004904FF47070009000203F
:10239000019002200290032003900348FFF76AF89F
:1023A00005B000BD00100240000C014010B5194CF2
:1023B00040212046FFF75AF938B9642001F0D2F8DD
:1023C00040212046FFF752F990B180212046FFF7C7
:1023D0004DF978B14FF480712046FFF747F970B19D
:1023E0004FF400712046FFF741F968B1002010BD9D
:1023F000012010BD642001F0B5F8022010BD64205A
:1024000001F0B0F8032010BD642001F0ABF8042007
:1024100010BD0000000C0140054C606880470100C1
:1024200002D004A0FDF768FFC82002F043F8F4E7EB
:1024300094010020B5B1C7B0B0B4BCFC3D25640D1B
:102440000A000000094808B5416941F001014161F5
:102450004069002200F00100009011460B20FFF7B8
:102460005DF9BDE808400B20FFF74BB900100240B2
:102470000848074A002102608160017301754FF42A
:102480006022C261416001210161FEF76FBB000063
:10249000002401403C030020FEE7704710B40021F7
:1024A000084B0A465FF0000003EB8004401CC0B2FA
:1024B00062548028F8D3491CC9B20429F2D310BC55
:1024C00000F0B2B9C404002030B1012807D10021C6
:1024D0005FF0A70000F0ECBB0021A620FAE77047F0
:1024E00000B500218D2000F0E3FB0021102000F05A
:1024F000DFFB0021AE205DF804EB00F0D9BB00B596
:1025000000218D2000F0D4FB0021142000F0D0FB2E
:102510000021AF205DF804EB00F0CABB00B558B154
:10252000012810D10021C02000F0C2FB0021A02012
:102530005DF804EB00F0BCBB0021C82000F0B8FB44
:102540000021A120F4E700BD2DE9F84F16460F4603
:1025500080460025144602FB06F951E008EB050011
:10256000A7EB040A00900AF0FF01C0B2012200F0BC
:102570009BF8A8EB050B0AF0FF010BF0FF0001220E
:1025800000F092F807EB040A0AF0FF010BF0FF00DD
:10259000012200F089F800980AF0FF01C0B2012280
:1025A00000F082F87819C1B208EB040A00900AF032
:1025B000FF00012200F078F8A7EB050B0BF0FF01FC
:1025C0000AF0FF00012200F06FF8A8EB040A0BF0FC
:1025D000FF010AF0FF00012200F066F800980122D6
:1025E000C1B20AF0FF0000F05FF86D1C05FB05F0BA
:1025F00004FB040006FB1600002801DD641E6D1EAE
:10260000600060434845A9DABDE8F88F2DE9FE4F28
:10261000151ACDE900104FF000085E1A47464FF03A
:10262000FF30002D02DD4FF0010102E003D14FF039
:1026300000018B4602E08346C5F10005002E02DD55
:102640004FF0010002E003D14FF00000824602E0AB
:102650008246C5F10006B54201DD2C4600E0344655
:10266000601C4FF00009029019E000980C9AC1B26A
:102670000198C0B200F018F8A8443744A04504DD22
:102680000198A8EB040858440190A74203DD009884
:102690003F1B5044009009F101001FFA80F9029994
:1026A0008945E2DBBDE8FE8F30B5CC0801F00703B9
:1026B00001259D40EBB2064D05EB8005C808285C5E
:1026C0000AB1184302E063EA0000C043285530BD58
:1026D000C4040020F0B54D4885B0816941F0010186
:1026E0008161806900F0010004904948416821F04F
:1026F000E06141F0007141603B200125CDE900051A
:102700000320444C039069462046FEF7B3FE0122A5
:102710003B212046FEF7AFFF3E4E082410363460C2
:10272000642000F01FFF371D3C60642000F01AFF9A
:1027300034603D600021AE2000F0BAFA0021084666
:1027400000F0B6FA0021102000F0B2FA002108468D
:1027500000F0AEFA0021B02000F0AAFA002181209A
:1027600000F0A6FA0021FF2000F0A2FA0021A1202B
:1027700000F09EFA0021A62000F09AFA0021A8207D
:1027800000F096FA00211F2000F092FA0021C820E4
:1027900000F08EFA0021D32000F08AFA00210846CA
:1027A00000F086FA0021D52000F082FA0021802076
:1027B00000F07EFA0021D92000F07AFA00211F20D3
:1027C00000F076FA0021DA2000F072FA00210846C3
:1027D00000F06EFA0021DB2000F06AFA00214020B0
:1027E00000F066FA00218D2000F062FA002114202A
:1027F00000F05EFAFFF752FE0021AF2000F058FA19
:102800000120FFF78BFE05B0F0BD00000010024074
:1028100000000140000C01400246012000E050434E
:10282000491EC9B2FBD2704770B5114E002400BFDB
:1028300004F1B000C0B2002100F03AFA00210846CD
:1028400000F036FA0021102000F032FA5FF00005A7
:1028500006EB85000121005D00F02AFA6D1CEDB247
:10286000802DF5D3641CE4B2042CE1D370BD0000CC
:10287000C404002070B5114E002400BF04F1B00064
:10288000C0B2002100F014FA0021084600F010FA4E
:102890000021102000F00CFA5FF0000506EB850027
:1028A0000121005D00F004FA6D1CEDB2802DF5D31E
:1028B000641CE4B2042CE1D370BD0000C404002009
:1028C0002DE9FF4F98460C46834689460025DDF8E2
:1028D00034A029E00298174900EB400001EB80008A
:1028E0000026475D380601D5524603E0BAF1000FD5
:1028F00012D0002221465846FFF7D6FE641C780607
:10290000E4B2070EA4EB0901414507D10BF1010028
:102910004C4600F0FF0B05E00122EBE7761CF6B217
:10292000082EDFD36D1CEDB24545D3D3BDE8FF4F74
:10293000FFF7A0BF045B00082DE9FC4F1C460E46C4
:1029400082468B460190082B0DD0600700D00120F5
:1029500000EBD40061084843C0B28146203AD0B2AF
:10296000009000204BE00620F7E7082C13D00C2C39
:1029700018D0102C1BD0182C44D10098234900EB00
:10298000C00000BF01EB8001002711F80850E807E4
:1029900012D00B9A13E000981D4900EB400001EBA8
:1029A0004001F1E700981B4900EB4000EAE71A49B3
:1029B000009801EB0011E7E70B9828B3002231469D
:1029C0005046FFF771FE761C7F1C6D08FFB2F6B211
:1029D000082FDCD30AF1010000F0FF0A082C0AD00E
:1029E0000199AAEB0100B0EB540F04D10BF10800E0
:1029F0008A4600F0FF0B08F101005E46C0B2804637
:102A00004845B2D3BDE8FC8F0122D8E75A6A0008D6
:102A1000BC5D0008F65F00086A6400082DE9FF4FFE
:102A200081B08146009098460E468B46580701D0EB
:102A3000012100E0002101EBD80000FB08FA00248E
:102A400047E000BFB8F1100F12D0B8F1180F14D042
:102A5000B8F1200F18D0B8F1400F3CD120490398AD
:102A600001EB40200027055DE80712D00E9A13E025
:102A70001C49039801EB4010F4E703981A4900EB56
:102A8000C00001EBC000EDE71849039801EBC0104E
:102A9000E8E70E9810B3002231464846FFF704FEDF
:102AA000761C7F1C6D08FFB2F6B2082FDCD309F14B
:102AB0000100009900F0FF09A9EB0101414505D192
:102AC0000BF10800DDF8009000F0FF0B641C5E467F
:102AD000A4B25445B6D305B0BDE8F08F0122DBE7C0
:102AE000DE790008B6770008167900085E790008DC
:102AF0002DE9FF4F81B00026DDE90EA91D46934662
:102B0000804634464FEA5A0727E0281B401EC1B2D0
:102B10000A20FFF781FEBBFBF0F00A21B0FBF1F2C7
:102B200001FB120026B9691E8C4201DA48B1012668
:102B30003030C2B207FB0480C0B25346CDF80090DB
:102B400006E007FB0480C0B253462022CDF8009077
:102B50000299FFF7F1FE641CE4B2AC42D5D305B094
:102B6000BDE8F04FFFF760BE2DE9FF4F82B0804611
:102B7000019092460C464FF000098B46580700D052
:102B8000012000EBD3000590002032E000262BE06E
:102B90000F98002510F8097009F101001FFA80F95B
:102BA000F80701D0109A02E0109848B3002221469D
:102BB0004046FFF779FD641C6D1C7F08EDB2E4B25E
:102BC000082DEDD308F10100019900F0FF08A8EBF2
:102BD0000101514505D10BF10800DDF8048000F03A
:102BE000FF0B761C5C46F6B25645D1D30098401CCC
:102BF000C0B2009005998842C8D306B0BDE8F08FF6
:102C00000122D4E72DE9F8411E46154688460446C0
:102C1000079F0BE03346414620460097FFF78CFEA6
:102C2000082E0CD004EB5600C4B26D1C2A78A2F119
:102C300020005E28EED9BDE8F841FFF7F5BDA41DE0
:102C4000E4B2F2E72DE9FF4F98460C4683468946E9
:102C50000025DDF834A024E002980026475D380600
:102C600001D5524603E0BAF1000F12D000222146EE
:102C70005846FFF719FD641C7806E4B2070EA4EB72
:102C80000901414507D10BF101004C4600F0FF0B53
:102C900005E00122EBE7761CF6B2082EDFD36D1CAF
:102CA000EDB24545D8D3BDE8FF4FFFF7E3BD0000C7
:102CB000F0B50E4B02241A1F09B1146000E01C602D
:102CC00001261E600021102720251D605FEA006C90
:102CD00001D5176000E01F6015604006491C000E1A
:102CE000C9B20829F1D316601460F0BD140C01407C
:102CF00010B5104902F0BEFD4FF0FF3102F0B8FEF2
:102D000002F084FD4FF0804100224A62032290FBD2
:102D1000F2F3094C5B00236090FBF2F2074B920048
:102D20001A60486305491031086003491031086092
:102D300010BD00000000FA442408004024040040B4
:102D400010B5142001F0B6FB0D4C207EAA2814D13A
:102D5000607E022811D1E07E02F0EAFC0022094BDD
:102D600002F08EFB02F05AFB074900224860074838
:102D7000114603684FF42A4098470020E06710BDD1
:102D80002400002000005940F0010020DC01002058
:102D90002DE9F04113460C46FDF743FE0C4D22464B
:102DA0001946A880AC71E81DFDF774FB221D291D92
:102DB0000848FDF76FFB0025064E074F241D03E072
:102DC000F968705D88476D1CA542F9DBBDE8F081AC
:102DD000DC010020040700202400002030B58FB063
:102DE000012100910225090400240795CDE9011471
:102DF000CDE908106846FEF71FFE00B1FEE70F2080
:102E0000CDE90A054FF48060CDE90C4002210AA803
:102E10000E94FEF71FFD002800D0FEE70FB030BD76
:102E200010B502F095F8012801D001F07BFDBDE856
:102E30001040FEF72BBC00000D48016841F0010175
:102E4000016041680B4A1140416001680A4A114023
:102E50000160016821F480210160416821F4FE01D4
:102E600041604FF41F0181600449C003086070474E
:102E7000001002400000FFF8FFFFF6FE08ED00E042
:102E800070B50E4A05464FF08040002482E83300BA
:102E900010461461FEF7E8FF084860214030002228
:102EA0008460C0E9001501464038FEF775FFBDE8B3
:102EB000704000210148FFF773B800000C040020A7
:102EC00070B505460D4A0C48002482E833001046D0
:102ED0001461FEF7C9FF0948602140300022846078
:102EE000C0E9001501464038FEF756FFBDE87040C6
:102EF00000210248FFF754B800040040B00300204E
:102F000070B505460D4A0C48002482E8330010468F
:102F10001461FEF7A9FF0948602140300022846057
:102F2000C0E9001501464038FEF736FFBDE87040A5
:102F300000210248FFF734B8000800406804002070
:102F4000F0B502681C4B1D4D1D4E1E4F1E4C4FF020
:102F5000804C984209D0A04207D0604505D0A842D5
:102F600003D0B04201D0B84204D122F0700E4A68BA
:102F700042EA0E02984209D0A04207D0604505D02F
:102F8000A84203D0B04201D0B84203D122F4407528
:102F9000CA682A434D6922F080022A4302608A6887
:102FA000C2620A688262984201D0A04201D10969D6
:102FB000016301214161F0BD002C0140000400408B
:102FC00000080040000C00400034014010B501F042
:102FD0001F030121046A99408C430462016A9A40EC
:102FE0001143016210BD0000F0B5026A22F0010237
:102FF0000262036A42688469124E24F073050C6809
:103000002C4323F002058B682B430D4DA84201D0C1
:10301000B04205D123F00807CB683B4323F00403FB
:10302000A84201D0B04205D14D6922F44072154347
:103030008A692A4342608461496841630362F0BD42
:10304000002C014000340140F0B5026A22F0100269
:103050000262026A436884690D6824F4E64444EA23
:1030600005248D6822F0200242EA05120F4D104E11
:10307000A84201D0B04206D1CF6822F0800242EAD5
:10308000071222F04002A84201D0B04207D14D6998
:1030900023F4406343EA85038D6943EA8503436073
:1030A0008461496881630262F0BD0000002C014028
:1030B00000340140F0B5026A22F480720262026AB2
:1030C0004368C46922F4007224F073050C68124E40
:1030D0002C438D6842EA05220E4DA84201D0B04231
:1030E00006D1CF6822F4006242EA072222F480620D
:1030F000A84201D0B04207D14D6923F4405343EABE
:1031000005138D6943EA05134360C4614968C163CF
:103110000262F0BD002C01400034014030B5026A6B
:1031200022F480520262046A4268C3690D6823F483
:10313000E64343EA05238D6824F4005444EA053449
:10314000084DA84202D0084DA84204D14D6922F48E
:10315000804242EA85124260C361496801640462A8
:1031600030BD0000002C01400034014010B5406A21
:103170000021C185C184FEF735FF10BD0168CA6812
:1031800022F49072CA6001684A6922F001024A6121
:10319000202180F83A10704710B590F83A10222993
:1031A00001D0022010BD8168B1F5805F11D00169A6
:1031B000002901681FD0496801F07F03816A4A1C19
:1031C00082620B70C18D491E0904090CC18518D09B
:1031D0002BE00269816A002A0268526805D0D2B2E7
:1031E0000A80816A491C8162ECE7C2F308020A8006
:1031F000816A891CF7E74A68816A4B1C83620A70FE
:10320000E0E70168CA6822F02002CA600168CA6863
:1032100022F48072CA6001684A6922F001024A61A0
:10322000202180F83A10FFF777F8002010BD000049
:103230002DE9F041044600680169E26821F440513B
:10324000114301612169A06808436169084321684D
:10325000CA6841F20C639A430243CA60206841691C
:10326000A26921F44071114341611E49206864251F
:103270003226884202D1FEF799FB01E0FEF786FB79
:1032800000EBC00101EB001160686FF018078000CF
:10329000B1FBF0F2B2FBF5F2B1FBF0F37A4303EBD2
:1032A0008202B1FBF0F306EB0212B2FBF5F2B3FBC4
:1032B000F5F302F0F00202EB0312B1FBF0F3B1FB05
:1032C000F0F0B0FBF5F0784303EB800006EB001064
:1032D000B0FBF5F0216800F00F0010448860BDE8F5
:1032E000F08100000038014090F83910212901D008
:1032F000022070478168B1F5805F016A0BD04A1CDB
:103300000262026809785160C18C491E0904090CE7
:10331000C1840ED017E009880268C1F3080151602A
:1033200001690029016A02D0491C0162ECE7891C8D
:10333000FBE70168CA6822F08002CA600068C168C1
:1033400041F04001C16000207047000070B50024CA
:103350000D4D0E48FEF74CFE02E0641CAC4204D852
:103360000A48FEF740FE2028F7D10024084E02E06C
:10337000641CAC4206D8012231460448FEF7A2FF85
:103380000028F5D170BD0000FFFF01007C02002085
:10339000A500002003490860081F01684906FCD504
:1033A000704700000438014070B500240D4D0E48F0
:1033B000FEF71EFE02E0641CAC4204D80A48FEF789
:1033C00012FE2028F7D10024084E02E0641CAC4213
:1033D00006D8012231460448FEF774FF0028F5D1D3
:1033E00070BD0000FFFF0100BC02002010010020A2
:1033F00003490860081F01684906FCD570470000B2
:103400000444004070B500240D4D0E48FEF7F0FD59
:1034100002E0641CAC4204D80A48FEF7E4FD202810
:10342000F7D10024084E02E0641CAC4206D8012209
:1034300031460448FEF746FF0028F5D170BD000074
:10344000FFFF0100FC0200207B010020034908600F
:10345000081F01684906FCD5704700000448004079
:1034600010B50C490A4A00240A60C1E90104CC6085
:103470000C200C61C1E905040846FEF741FE01225B
:1034800005490448FEF71EFF03488138C46710BD94
:10349000003801407C020020A50000200B4910B537
:1034A000094AC1E9002000208860C860086188617D
:1034B0000C2048610846FEF723FEBDE810400122BB
:1034C00003490248FEF7FEBE00440040BC02002053
:1034D000100100200B4910B5094AC1E90020002065
:1034E0008860C860086188610C2048610846FEF762
:1034F00007FEBDE81040012203490248FEF7E2BE84
:1035000000480040FC0200207B010020FEE7090784
:10351000090E002804DB00F1E02080F80014704759
:1035200000F00F0000F1E02080F8141D7047704794
:1035300010B504460420FEF70FFC09484FF47A71D9
:1035400044604C43012101804FF0E020016941F0CB
:10355000020101614461016941F00101016110BD95
:103560001C00002070B5044601F0F2FC01280CD0CC
:10357000094D2888844203D3B4FBF0F000F09AFF91
:103580002888B4FBF0F100FB11444FF47A706043DB
:10359000BDE8704000F002B81C00002070B54FF08C
:1035A000E024002265690949A36949684843A16983
:1035B0009942FCD002D2A3EB010302E0A5EB010685
:1035C00033441A440B468242F1D370BD1C000020E4
:1035D00004490A685206FCD5024AC1B2121D1160A4
:1035E00070470000003801402DE9FC41FEF756F815
:1035F0004FF4E010FFF7F2FB4820FFF799FF334844
:1036000000688047324C4FF4E135284621688847EE
:10361000A168284688472F4C40F2CF7501212268C7
:10362000284690476268012128469047A2680121F8
:1036300028469047284C20688047606980470125CC
:10364000009518230421666A24A21420B0474FF481
:103650007A773846FFF786FFFEF7F4FEFEF708FF9D
:1036600020A12948FCF748FEFEF78AF90646606962
:10367000804700950C230421D4F824C023A2002005
:10368000E0470C20CDE90005246B082304213246D5
:103690001E20A04731461EA0FCF72EFE3846FFF73D
:1036A00061FF03221D491E48FDF72CFC1B48002327
:1036B000001FCDE9005080221AA11D4801F01CFC1A
:1036C00001F062F80020BDE8FC81000094010020B8
:1036D00024000020840100209C010020464F435F0D
:1036E00056300000B0E6B1BE3A464F435F56302038
:1036F0002020B8FCD0C2CAB1BCE43A323032302DFE
:1037000031322D3039000000E07B0008434C4B0083
:10371000636C6B3A256C640D0A0000000400002005
:103720003C03002073746172745F7461736B0000FA
:10373000ED4000082DE9F041184C0F460546E668BB
:103740002068001D00F028FD38B9206890F82C1082
:1037500001208840216981432161681C07D137B16C
:103760002168BDE8F0410E48091D00F04DBD2068FC
:103770003544B5424560216805D2A06BBDE8F041F3
:10378000091D00F029BD606B091D00F025FDA06A30
:10379000854200D2A562BDE8F0810000F80100205A
:1037A000280A00202DE9F041054600F039FD2D4C96
:1037B000A068401CA06020682B4F10B1606930B336
:1037C0002BE02560A068012827D1002606EB8600A3
:1037D00007EB800000F0F2FC761C202EF6D3234885
:1037E00000F0ECFC2148143000F0E8FC1F482830C1
:1037F00000F0E4FC1D483C3000F0E0FC1B48503079
:1038000000F0DCFC194860631430A06305E0206818
:10381000E96AC06A884200D82560606A401C60621C
:103820006864E96A0120226988401043206101EB45
:10383000810007EB8000291D00F0E6FC00F02CFD64
:10384000606900280CD02068E96AC06A884207D203
:1038500007494FF080500860BFF34F8FBFF36F8F61
:10386000BDE8F081F801002058070020D8090020A9
:1038700004ED00E010B500F0D3FC0E4C2068A0B9B8
:103880000D4800F09BFC0C48143000F097FC0A48EF
:10389000E0601430206100221021052001F058F86A
:1038A000206010B105A100F0CFFDBDE8104000F090
:1038B000F3BC0000340200203C0A0020546D725119
:1038C0000000000070B5114E114C17E000F0A8FF89
:1038D0003068B8B101F070FC00F0A2FCF068C56877
:1038E000281D00F059FCA068401EA0606068401EC2
:1038F000606000F0D1FC284600F055F860680028B0
:10390000E4D170BD01F058FCF8E70000140A002073
:10391000F801002030B4026C0B46002A0BD0C168BD
:103920001144C1604468A14201D30168C16030BC48
:103930001846FCF7AFBD30BC70472DE9F041856BF0
:10394000174604460026026C82B1C7B1E068FCF756
:10395000A1FDE168206C091AE1602268914202D25F
:103960006168081AE060022F16D017E02068A8B935
:10397000606801F077FB0646002060600EE0A068FA
:10398000FCF788FD216CA0680844A060616888424B
:1039900004D32068A06001E005B16D1E6D1CA56315
:1039A0003046BDE8F08110B50446006B00F0A6FC7F
:1039B0002046BDE8104000F0A1BC000010484FF4C4
:1039C000A041420706D0C01D0D4920F00700411A52
:1039D000C1F5A0410B4A00230144C2E900030839A4
:1039E000103A21F0070111604B600B600B1AC0E91F
:1039F000001393604FF000405360D06070470000A8
:103A0000640A002064020020074C4FF08056074DE6
:103A1000FFF758FF20680128FAD92E60BFF34F8FB7
:103A2000BFF36F8FF4E700005807002004ED00E0BB
:103A30002DE9F047DDE909840E46174682469100DC
:103A40009946089DA522206BFCF769FD6FF00301E4
:103A5000206B01EB8701084420F00707780705D0A9
:103A600040F22B3219A11FA0FCF746FC00202218BF
:103A7000315C82F83410315C11B1401C1028F6D34F
:103A8000002684F84360202D00D31F25E562C4E999
:103A90001356201D00F09DFB04F1180000F099FB67
:103AA0002461C5F120006462A061666584F85860F5
:103AB0004A465146384600F007FB2060B8F1000F37
:103AC00001D0C8F80040BDE8F08700002E2E5C2E23
:103AD0002E5C4672656552544F535C7461736B7310
:103AE0002E6300004572726F723A25732C25640DA7
:103AF0000A00000030B5114900E011460A68824210
:103B0000FBD34B685C18844203D14068184448607A
:103B1000084643681C18944209D1084C103C24689C
:103B2000A24209D052681A4442600A6812680260D0
:103B3000814200D0086030BD0460F9E764020020D3
:103B400070B5002441600B4D0061914206D8D11A36
:103B50008269914206D2011D286907E09A4203D288
:103B6000994201D3012403E0011DE86800F034FB11
:103B7000204670BD3402002010B5044600F050FB12
:103B8000A06B28B15FF0000400F086FB204610BD5A
:103B90000124F9E72DE9F34100980F460026846CD3
:103BA0002CB940F6CE1216A11BA0FCF7A5FBA06B0A
:103BB000E16B884205D340F6CF1211A116A0FCF7A5
:103BC0009BFBA06BE16B88420CD294F945503A46BE
:103BD00069462046FFF7B1FE0646681C05D06D1CFD
:103BE00084F845503046BDE8FC81606A0028F9D071
:103BF00004F1240001F092FA0028F3D00126F1E745
:103C00002E2E5C2E2E5C4672656552544F535C71AD
:103C1000756575652E6300004572726F723A257383
:103C20002C25640D0A000000F8B5054614480E4620
:103C3000C068C068C468201D00F0AEFAE0690128C1
:103C400017D1A0692B46411932462046FFF778FF6D
:103C500078B100200346014600902A46204601F034
:103C600095FB30B907494FF4027201F11800FCF7D7
:103C700043FB616A01B02046BDE8F0400847000000
:103C800034020020F052000870B588B02F4E53E087
:103C90000498002806DADDE90601059A90470498A1
:103CA000002849DB069C606910B1201D00F074FA01
:103CB00002A800F0A7F8054604980A283CD2DFE8DD
:103CC00000F00505053B273805053B270598A16948
:103CD000034601442A462046FFF732FF00282BD036
:103CE000616A20468847E069012825D100200090BC
:103CF0000598A169002342181946204601F046FBA9
:103D0000D0B940F2213212A117A0FCF7F5FA13E066
:103D10000598A06128B94FF44E720DA112A0FCF7CE
:103D2000EBFAA0692B4641191A462046FFF708FF17
:103D300002E0204600F0E2FA00231A4604A93068A7
:103D400000F044FE0028A3D108B070BD340200206A
:103D50002E2E5C2E2E5C4672656552544F535C7459
:103D6000696D6572732E63004572726F723A2573C6
:103D70002C25640D0A000000F8B50D46064600F03B
:103D80004FFD684600F03EF80446009810B101F07F
:103D900013FAF8BD1148ADB101690968D9B1002520
:103DA000311B2A46006800F063FB01F005FA002889
:103DB000EFD10B494FF080500860BFF34F8FBFF336
:103DC0006F8FF8BDA642EBD801F0F6F921463046D8
:103DD000FFF72AFFF8BD0125E2E7000034020020CA
:103DE00004ED00E00648416B096829B1416BC968E0
:103DF000C9684968816270474FF0FF31FAE70000F7
:103E0000F801002070B5054601F0B0F8064E0446F2
:103E1000B068844203D200F009F8012000E00020DD
:103E200028602046B46070BD34020020F8B5184DFB
:103E300026E0C068C4680668201D00F0ADF9616A1C
:103E400020468847E06901281AD1A0693044B04271
:103E500006D924616060211DE86800F0BDF90FE01B
:103E600000200346014600903246204601F08EFABB
:103E700030B9084940F2923201F11800FCF73CFADF
:103E8000E86801680029D4D12969C5E90310F8BDA3
:103E900034020020F052000808484068401C04D05A
:103EA000F42207A111A0FCF727FA502080F3118813
:103EB000BFF34F8FBFF36F8FFEE700004802002073
:103EC0002E2E5C2E2E5C4672656552544F535C70EC
:103ED0006F727461626C655C525644535C41524D22
:103EE0005F434D335C706F72742E63004572726F66
:103EF000723A25732C25640D0A000000074CE06817
:103F0000016841B1C0680021D0F80000FFF734FF1C
:103F1000FFF7BAFEF3E701210020F7E734020020A3
:103F20002DE9F041044600F07BF994F9455004F185
:103F3000240610E0A06C20B100212046FFF72AFEE5
:103F400004E0606A48B1304601F0E8F808B100F0DA
:103F500051FB6D1E6DB2002DECDC4FF0FF3684F886
:103F6000456000F099F900F05BF994F9445004F1D0
:103F7000100709E0206948B1384601F0CFF808B1D0
:103F800000F038FB6D1E6DB2002DF3DC84F8446048
:103F9000BDE8F04100F080B92DE9F0410546002769
:103FA00000F03EFC324E306808B9FFF707FDF068BC
:103FB00005424FD1002D4DD0083568070BD005F0D4
:103FC0000700C0F108000544680704D0BF2229A1FA
:103FD00033A0FCF791F9002D3CD07068854239D8A8
:103FE0002348103001460C6801E020460C46616809
:103FF000A94202D221680029F7D13168B0468C422B
:1040000028D007682168016060680837401B1028C5
:104010000ED96619700704D0EC2216A120A0FCF777
:104020006BF96068401B706030466560FFF762FDA9
:104030006268D8F804104046891AC8F80410D8F805
:104040000830994200D28160D8F80C000243002069
:10405000C4E9000201F0B0F8780705D04FF4967279
:1040600004A10FA0FCF748F93846BDE8F081000034
:10407000540200202E2E5C2E2E5C46726565525432
:104080004F535C706F727461626C655C4D656D4D11
:10409000616E675C686561705F342E6300000000CC
:1040A0004572726F723A25732C25640D0A00000068
:1040B0000449086818B10868026D521C0265086856
:1040C00070470000F801002010B5031F4FF0807406
:1040D0001C601B1F21F001011960191F024B0B60AE
:1040E000143940380A6010BD993E00081CB500F034
:1040F00097F817490220CDE900010023322215A1CB
:10410000164800F0F9FE16480324CDE900400023CC
:10411000322214A1154800F0EFFE15480023CDE926
:104120000040322213A1154800F0E6FE1448002397
:10413000CDE90040322213A1154800F0DDFE1548FC
:10414000006800F0EFF9BDE81C4000F0A5B80000E1
:104150006C02002041305F7461736B00CD07000872
:104160007002002042305F7461736B00AD0900087B
:104170007402002043305F7461736B00CD09000846
:10418000780200204B45595F7461736B000000009A
:104190001924000800000020D0E9013201699A606A
:1041A000D0E901235A604A68824201D182684A609C
:1041B000002202610868401E0860704700F1080193
:1041C0004FF0FF32C0E90112C160016100210160BE
:1041D000704700210161704730B50B685A1C02D04E
:1041E00000F1080202E0026904E0224654682568F2
:1041F0009D42FAD953684B6099608A6051600861AA
:104200000168491C016030BD42684A6093688B6058
:1042100093685960916008610168491C01607047AA
:10422000502080F31188BFF34F8FBFF36F8F094980
:104230004868401C486001280AD10748006810F00F
:10424000FF0F05D04FF4BD7204A10FA0FCF754B8C6
:10425000704700004802002004ED00E02E2E5C2E86
:104260002E5C4672656552544F535C706F72746178
:10427000626C655C525644535C41524D5F434D3312
:104280005C706F72742E63004572726F723A2573A0
:104290002C25640D0A00000010B5084C606828B990
:1042A00040F2811206A111A0FCF726F86068401EBA
:1042B000606001D180F3118810BD00004802002029
:1042C0002E2E5C2E2E5C4672656552544F535C70E8
:1042D0006F727461626C655C525644535C41524D1E
:1042E0005F434D335C706F72742E63004572726F62
:1042F000723A25732C25640D0A00000070B5002861
:104300002AD0164DA0F108046068E968084205D17A
:104310004FF4A07212A11DA0FBF7EEFF206828B198
:1043200040F241120EA119A0FBF7E6FF6168E868B0
:10433000014211D02268002A0ED18143616000F051
:104340006FFA60686968084468602046FFF7D2FB2E
:10435000BDE8704000F030BF70BD00005402002086
:104360002E2E5C2E2E5C4672656552544F535C7047
:104370006F727461626C655C4D656D4D616E675CFA
:10438000686561705F342E63000000004572726FD3
:10439000723A25732C25640D0A00000006484FF47C
:1043A0007A710068B0FBF1F14FF0E020491E4161E5
:1043B00007210161704700001800002010B5FBF7CD
:1043C00075FF104C10280CD300F1E02090F8F0039A
:1043D0002178884205D24FF42A720BA115A0FBF771
:1043E0008BFF18480068A16800F4E060884207D994
:1043F000BDE810404FF42E7203A10EA0FBF77CBF66
:1044000010BD0000480200202E2E5C2E2E5C46724D
:10441000656552544F535C706F727461626C655C79
:10442000525644535C41524D5F434D335C706F7242
:10443000742E63004572726F723A25732C25640DD9
:104440000A0000000CED00E010B5084B002200BF90
:1044500053F832401CB1521C082AF9D310BD43F85E
:10446000321003EBC201486010BD000018070020A5
:1044700070B515460E460446FFF7D2FE94F9441077
:104480000020491C01D184F8440094F94510491CCE
:1044900001D184F84500FFF7FFFEA06B28B92A463A
:1044A000314604F1240000F0D7F82046BDE8704002
:1044B000FFF736BD10B5040012D00E48006B28B1CE
:1044C00040F2CF420CA112A0FBF716FF00F0A8F9B2
:1044D00000212046FFF72EF900F06EFE002807D1DC
:1044E0000F494FF080500860BFF34F8FBFF36F8FBD
:1044F00010BD0000F80100202E2E5C2E2E5C4672AE
:10450000656552544F535C7461736B732E63000086
:104510004572726F723A25732C25640D0A000000F3
:1045200004ED00E070B50546FFF77AFE234C05B9AF
:104530002568281DFFF730FE58B9E86A204A00EBCD
:10454000800152F8211021B901218140206988435E
:104550002061A86A18B105F11800FFF71DFE606A16
:10456000401C60622068854207D1291D1548FFF76D
:104570004BFE6068401C606007E0A068401EA060C1
:104580002846FFF710FAFFF72DFCFFF785FE60695C
:10459000002812D0206885420FD1206B28B140F24C
:1045A000654209A10EA0FBF7A7FE11494FF080500C
:1045B0000860BFF34F8FBFF36F8F70BDF80100200D
:1045C00058070020140A00202E2E5C2E2E5C467206
:1045D000656552544F535C7461736B732E630000B6
:1045E0004572726F723A25732C25640D0A00000023
:1045F00004ED00E001490120C8617047F801002086
:1046000070B50D46040005D140F6063207A10DA095
:10461000FBF772FE0F48016820461831FFF7DCFDFA
:104620002846BDE870400121FFF784B82E2E5C2E8D
:104630002E5C4672656552544F535C7461736B73A4
:104640002E6300004572726F723A25732C25640D3B
:104650000A000000F801002070B514460D4606005F
:1046600005D140F6313209A10EA0FBF745FE1148F5
:10467000016830461831FFF7C7FD0CB14FF0FF3528
:1046800021462846BDE87040FFF754B82E2E5C2E18
:104690002E5C4672656552544F535C7461736B7344
:1046A0002E6300004572726F723A25732C25640DDB
:1046B0000A000000F801002070B5040039D01D4D3B
:1046C000E06A2968C96A884233D2A069002804DBFD
:1046D0002868C06AC0F12000A061E16A164E01EBB3
:1046E0008101606906EB810188421FD1201DFFF71F
:1046F00053FD012150B9E06A00EB800256F82220F8
:1047000022B92A6901FA00F082432A612868C06A46
:10471000E0622A6981401143296100EB800006EBC9
:104720008000211DBDE87040FFF76EBD2868C06A9B
:10473000E06270BDF80100205807002010B50400A9
:1047400005D140F6C13205A10AA0FBF7D5FD0D4801
:10475000016A2160C068606010BD00002E2E5C2ED2
:104760002E5C4672656552544F535C7461736B7373
:104770002E6300004572726F723A25732C25640D0A
:104780000A000000F80100201CB517480024CDE9FC
:1047900000402346822215A1164800F0ADFB0128F7
:1047A00003D100F0B9FD01280AD0401C1BD102B092
:1047B00040F28472BDE810400FA115A0FBF79CBD2C
:1047C000502080F31188BFF34F8FBFF36F8F0648DF
:1047D0004FF0FF312C38816201214161C460BDE896
:1047E0001C4000F065B81CBD2402002049444C4523
:1047F00000000000093A00082E2E5C2E2E5C467246
:10480000656552544F535C7461736B732E63000083
:104810004572726F723A25732C25640D0A000000F0
:104820000248016B491C016370470000F801002039
:1048300070B5134C206B10B10120E06170BD0020F9
:10484000E06120690F4EB0FA80F0C0F11F0000EB6C
:10485000800556F8250028B940F6F6220AA110A0D6
:10486000FBF74AFD06EB850000F108024168496844
:104870004160914201D149684160C868206070BDC3
:10488000F8010020580700202E2E5C2E2E5C467268
:10489000656552544F535C7461736B732E630000F3
:1048A0004572726F723A25732C25640D0A00000060
:1048B0001CB5194908780190FF20087008788DF818
:1048C00000009DF80000154A00F05000107007200D
:1048D000906005E09DF800305B008DF80030401ED0
:1048E0009DF800301B06F5D4000200F4E0609060F3
:1048F000019808700A48016841F47001016001687C
:1049000041F070410160FFF749FD00205060FBF766
:1049100097FC00201CBD000000E400E048020020DD
:1049200020ED00E010B5502080F31188BFF34F8FC9
:10493000BFF36F8F00F020FB18B104494FF0805097
:104940000860002080F3118810BD000004ED00E035
:104950002DE9F04117460E46050005D14FF4C4720B
:1049600010A116A0FBF7C8FCBEB105FB06F0543041
:10497000FFF712FB04000ED004F154007EB120605A
:10498000C4E90F562046012100F0E4F884F8507085
:1049900000212046A164BDE8F0810020E7E7246003
:1049A000EEE700002E2E5C2E2E5C4672656552549A
:1049B0004F535C71756575652E6300004572726FAB
:1049C000723A25732C25640D0A0000002DE9FF4F73
:1049D000002683B09B468A46040005D140F2DC42A3
:1049E00051A157A0FBF788FCBAF1000F07D1206C4A
:1049F00028B140F2DD424CA151A0FBF77DFC00F054
:104A0000A7FA38B9059828B14FF49C6246A14CA08A
:104A1000FBF772FC4FF000094FF08057DFF8308150
:104A2000FFF7FEFBA56B4DB351462046E668FEF747
:104A300071FFBBF1000F14D0E660606A58B104F159
:104A4000240000BF00F06AFB28B1C8F80070BFF373
:104A50004F8FBFF36F8FFFF71FFC012007B0BDE83A
:104A6000F08F6D1EA563206810B9FFF721FB606011
:104A700020690028EFD004F11000E3E7059808B1A1
:104A80001EB106E0FFF708FC27E06846FFF756FE78
:104A90000126FFF701FCFFF7C3FEFFF7C1FB94F906
:104AA0004400401C01D184F8449094F94500401C16
:104AB00001D184F84590FFF7EFFB05A9684600F0A7
:104AC000D5F9002820460AD0FFF72AFA00F074FB37
:104AD0002046FFF751F80028A2D00020BEE7FFF7DC
:104AE0004BF8D8B1206830B9FFF79AFB6068FFF740
:104AF000E3FDFFF7D1FB04F124000599FFF780FDEA
:104B00002046FFF70DFA00F057FB002888D1C8F8BF
:104B10000070BFF34F8FBFF36F8F81E72046FFF721
:104B2000FFF900F049FB7BE72E2E5C2E2E5C4672CF
:104B3000656552544F535C71756575652E63000051
:104B40004572726F723A25732C25640D0A000000BD
:104B500004ED00E070B50D46040005D140F21B12D3
:104B60001CA122A0FBF7C8FBFFF75AFBD4E90F20DA
:104B7000216802FB001161600021A1632168A1602E
:104B80000A46D4E90F01401E00FB0121E1602146E5
:104B90004FF0FF3001F8440F487004F110004DB1A0
:104BA000FFF70CFB04F12400FFF708FBFFF774FB91
:104BB000012070BD21690029F8D000F0AFFA00286B
:104BC000F4D00E494FF080500860BFF34F8FBFF311
:104BD0006F8FEBE72E2E5C2E2E5C4672656552546D
:104BE0004F535C71756575652E6300004572726F79
:104BF000723A25732C25640D0A00000004ED00E0D4
:104C00002DE9FF4782B01D468A464FF00008040098
:104C100005D140F2D92250A155A0FBF76DFBBAF1A6
:104C2000000F07D1206C28B140F2DA224AA150A02F
:104C3000FBF762FB022D08D1E06B012805D040F2A2
:104C4000DB2245A14AA0FBF757FB00F081F938B9F8
:104C5000049828B140F2DE223FA145A0FBF74CFBAF
:104C6000474F4FF000094FF0805600BFFFF7D8FACA
:104C7000A06BE16B884207D3022D05D0049808B3DE
:104C8000B8F1000F21D025E02A4651462046FEF714
:104C900054FEA16C21B129462046FEF77BFF05E0BA
:104CA000616A19B104F1240000F038FA20B13E60C5
:104CB000BFF34F8FBFF36F8FFFF7EEFA012006B0FF
:104CC000BDE8F087FFF7E8FA22E06846FFF736FD17
:104CD0004FF00108FFF7E0FAFFF7A2FDFFF7A0FA97
:104CE00094F94400401C01D184F8449094F94500A3
:104CF000401C01D184F84590FFF7CEFA04A968461C
:104D000000F0B4F830B12046FFF70AF900F054FA89
:104D10000020D4E7FFF784FAA06BE16B884213D13F
:104D2000FFF7BAFA04F110000499FFF769FC204676
:104D3000FFF7F6F800F040FA002897D13E60BFF385
:104D40004F8FBFF36F8F91E7FFF7A6FA2046FFF76B
:104D5000E7F800F031FA89E72E2E5C2E2E5C4672C1
:104D6000656552544F535C71756575652E6300001F
:104D70004572726F723A25732C25640D0A0000008B
:104D800004ED00E02DE9F0479846174689460400F7
:104D900005D140F29F322BA130A0FBF7ADFAB9F15B
:104DA000000F07D1206C28B14FF4687225A12BA009
:104DB000FBF7A2FAB8F1020F08D1E06B012805D089
:104DC00040F2A1321FA125A0FBF796FAFFF7F6FAF1
:104DD0005020EFF3118680F31188BFF34F8FBFF39C
:104DE0006F8FA06BE16B884208D3B8F1020F05D03A
:104DF0005FF0000086F31188BDE8F08794F9455014
:104E0000424649462046FEF798FD681C04D06D1CBA
:104E100084F845500120EDE7A06C012520B1414602
:104E20002046FEF7B7FE06E0606A0028F2D004F1E3
:104E3000240000F073F90028ECD0002FEAD03D6088
:104E4000E8E700002E2E5C2E2E5C467265655254FB
:104E50004F535C71756575652E6300004572726F06
:104E6000723A25732C25640D0A00000070B50D46BA
:104E7000040005D140F6CB3214A11AA0FBF73CFA8E
:104E80002DB940F6CC3211A116A0FBF735FAFFF789
:104E9000C7F9184AD1682868431C0FD02368126AE2
:104EA000934202D062688A420AD96268891A8142B2
:104EB00006D2401A28602046FFF740FC002400E09C
:104EC0000124FFF7E9F9204670BD00002E2E5C2E6C
:104ED0002E5C4672656552544F535C7461736B73FC
:104EE0002E6300004572726F723A25732C25640D93
:104EF0000A000000F80100202DE9FF5F8346DDE98C
:104F00000E87994616468A469000FFF745F8050039
:104F10001AD05C20FFF740F8040012D0256300216E
:104F2000CDE90241CDE900874B463246514658460D
:104F3000FEF77EFD2046FEF735FC012004B0BDE8FB
:104F4000F09F2846FFF7DAF94FF0FF30F6E7000050
:104F50000548416919B1006B18B100207047012064
:104F60007047022070470000F80100200148C06827
:104F700070470000F80100202DE9F0412D4C00277A
:104F8000206B40B1A069401CA061E06900B101271D
:104F90003846BDE8F081E668761CE66011D1606BAA
:104FA000006828B140F6D91223A129A0FBF7A4F983
:104FB000606BA16B6163A063206A401C2062FEF7F6
:104FC00011FFA06ADFF89880864209D3606B006801
:104FD00080B1606BC068C568686886420DD2A06207
:104FE0002068C06A00EB800158F821000128CCD964
:104FF0000127CAE74FF0FF30F1E7281DFFF7CCF893
:10500000A86A18B105F11800FFF7C6F8E86A01218F
:10501000226981401143216100EB800108EB81008E
:10502000291DFFF7F1F8E86A2168C96A8842CDD3E3
:105030000127CBE7F80100202E2E5C2E2E5C467255
:10504000656552544F535C7461736B732E6300003B
:105050004572726F723A25732C25640D0A000000A8
:105060005807002070B504004FF000063CD01F4DDB
:105070002868844205D040F6C7621DA122A0FBF734
:105080003BF9206D28B940F6C96219A11EA0FBF7B3
:1050900033F9206D401E2065E26CE16A914223D015
:1050A00010BB201DFFF778F81B4A012150B9E06AB8
:1050B00000EB800352F8233023B92B6901FA00F08A
:1050C00083432B61E06CE062C0F12000A061E06AE4
:1050D0002B6981401943296100EB800002EB8000BD
:1050E000211DFFF791F80126304670BDF801002020
:1050F0002E2E5C2E2E5C4672656552544F535C74A6
:1051000061736B732E6300004572726F723A257380
:105110002C25640D0A000000580700202DE9F041FD
:10512000C068C4682CB940F6613216A11BA0FBF719
:10513000E3F804F118000746FFF72EF81B4D286B23
:10514000012660B139461A48FFF75EF8E06A29681F
:10515000C96A884213D90120EE61BDE8F081201DA3
:10516000FFF71AF8E16A2A6906FA01F0104328618C
:1051700001EB81000F4901EB8000211DE4E70020D5
:10518000EBE700002E2E5C2E2E5C467265655254B5
:105190004F535C7461736B732E6300004572726FC2
:1051A000723A25732C25640D0A000000F8010020D6
:1051B000000A0020580700202DE9F0472C4C00255C
:1051C0002E46206B28B94FF4FD622AA12FA0FBF7D1
:1051D00093F8FFF725F8206B401E2063206BE0BB9F
:1051E000A1682E4F0120C1B3A7F52A7980463868FF
:1051F000E8B1F868C56805F11800FEF7CDFF281D75
:10520000FEF7CAFFE86A226908FA00F1114321613A
:1052100000EB800109EB8100291DFEF7F5FFE86A2C
:105220002168C96A8842E2D3C4F81C80DFE70DB167
:10523000FEF7D8FDA5694DB14FEA0807FFF79CFEC0
:1052400000B1E7616D1EF9D10020A061E06920B1D5
:10525000134901263007086000E003E0BFF34F8FD9
:10526000BFF36F8FFFF718F83046BDE8F0870000F6
:10527000F80100202E2E5C2E2E5C4672656552547D
:105280004F535C7461736B732E6300004572726FD1
:10529000723A25732C25640D0A000000000A0020D4
:1052A00004ED00E02DE9F0470746994616460D4605
:1052B0002C20DDF820A0FEF76FFE040014D0B846C5
:1052C0004F46D1462DB94FF4C67209A10EA0FBF787
:1052D00013F8FEF7CFFA04F11801C4F8008081E852
:1052E000E002201DFEF775FF2046BDE8F0870000B4
:1052F0002E2E5C2E2E5C4672656552544F535C74A4
:10530000696D6572732E63004572726F723A257310
:105310002C25640D0A0000001CB50024FEF7AAFA33
:105320000C48006868B10B491F20091DCDE9000138
:1053300000234FF4827208A10948FFF7DDFD040045
:1053400005D140F2331207A10CA0FAF7D5FF204691
:105350001CBD000034020020546D7220537663009F
:10536000FD3E00082E2E5C2E2E5C46726565525462
:105370004F535C74696D6572732E63004572726F72
:10538000723A25732C25640D0A0000002DE9FF47B1
:10539000DDF830A0994690460E4607004FF0000415
:1053A00005D14FF4D37212A117A0FAF7A5FF1A4D39
:1053B000286880B1CDE900680297062E11DAFFF760
:1053C000C7FD02284FF0000309D000226946286873
:1053D000FFF716FC044604B02046BDE8F0875246AD
:1053E000F4E700234A466946FFF7CCFCF2E70000E9
:1053F0002E2E5C2E2E5C4672656552544F535C74A3
:10540000696D6572732E63004572726F723A25730F
:105410002C25640D0A0000003402002021F0004217
:10542000A2F16052B2F5801F01F0004328BFD2F113
:105430007F6C0BD95FEA001C43EAC20242EB50705A
:1054400018BF704728BF20F001007047B2F5801FD9
:10545000BCBF184670474FEA410C1CF5001F02D232
:10546000084600F0CEBA70B500F075F9000000896A
:10547000FFF7F6BF4FF00040A0F580007047000036
:105480002DE9C04130B4DFF8A0C23CEA111418BFC6
:105490003CEA131400F0EC8081EA03051CEA1114C5
:1054A00044EAD57418BF1CEA131500F0C780A4EBBA
:1054B00005044FF0004545EAC12145EAC32341EA0E
:1054C000505143EA525304F17F74994204F5003479
:1054D0004FEAC0204FEAC22208BF904200F09C80F1
:1054E0004FEA13650FF24016765D4FEA134506FB4F
:1054F00005F7C7F1807706FB07F74FEAD737A7FB19
:1055000003687642C8F58038A7FB06CE38BFA8F1FD
:10551000010807FB08E64FF0000EA6FB028CE6FB35
:1055200003CEDCF1000CCEF1004E38BFAEF1010E1F
:10553000A6FB0C584FF000074FF00005E6FB0E8766
:10554000A1FB08C6A0FB07CE16EB0E0645F1000531
:10555000E1FB076515F1E04E7EBFA4F580345FEAFC
:1055600046066D4116F1800745F100054FEA172701
:105570004FEA066647EA0567A6F1DE46B6F1805FA8
:105580004FEA15251FD9384624F0010C05EBC471EC
:10559000BCF1FE6F01EB0C1102D8F0BCBDE800813C
:1055A00024425CBF01F5801E9EEAC47F02D4F0BC99
:1055B000BDE80081244238D4F0BCA1F1C041BDE86F
:1055C000004100F016B94FEAD22242EA43524FEAB4
:1055D000D323A7FB02864FEAD02040EA415007FBC5
:1055E00003661EEA0E0F4FEAD12105FB026658BF83
:1055F000A6EB0056B6EB00564FEA520E4EEAC37EBB
:1056000018EB0E0E56EB530EBDD518EB02085E419B
:105610007F1C55F10005B6E74FF480154FF00007E9
:105620004FF000064FF00008ADE7F0BC4FF000006F
:1056300001F1C04101F00041BDE8008111EA0C1FF9
:105640000CEA131500D00CE013EA0C1F00F02580C3
:105650004FF00000F0BC81EA030101F00041BDE819
:105660000081F0BCBDE8004181EA030100F0C1B84F
:10567000F0BCBDE8004170B500F06DF8097EFC3E5D
:1056800000F007B881EA03014FF0000001F000418B
:10569000704781EA030100F0ACB8F0BCBDE80041FE
:1056A0004FF0000021497047FFFDFBF9F7F5F4F2D8
:1056B000F0EEEDEBE9E8E6E4E3E1E0DEDDDBDAD8AD
:1056C000D7D5D4D3D1D0CFCDCCCBCAC8C7C6C5C40B
:1056D000C2C1C0BFBEBDBCBBBAB9B8B7B6B5B4B322
:1056E000B2B1B0AFAEADACABAAA9A8A8A7A6A5A40D
:1056F000A3A3A2A1A09F9F9E9D9C9C9B9A999998D1
:105700009797969595949393929191908F8F8E8E73
:105710008D8C8C8B8B8A8989888887878685858400
:1057200084838382828181800000FF070000F87FEC
:10573000B0FA80F310FA03F10AD0C3F11D0303F5A8
:1057400080634FEA41504FEA035202EBD121704788
:105750004FF0000070470EF1020E2EF0030E5EF8BF
:10576000046B364205D4012A43EB030515F5001FEF
:1057700012D8012841EB010C1CF5001F0CD80ED1EA
:105780004FEAD17C15F5001F0CEB4C0C0CF1020C10
:1057900008BF4CEBD37C04E04FF0080C01E04FEA6B
:1057A000D37C0CEB4C0526FA05F606F00706B6F19D
:1057B000040C06D20EEB860CBDE870404CF0010CD8
:1057C0006047DFE80CF0090B02024FF000414FF098
:1057D0000000A1F5002170BD19461046012851EBCB
:1057E000010418BFD4F5001484BF002001F000416B
:1057F00070BD0808A0F500114FEA310170470000A4
:10580000014800F003B900BF0000C07F41000B0E4B
:10581000D3F19E0208D950F400034FEA032323FA80
:1058200002F048BF4042704710B500F0A4F800BF36
:1058300049922480002070476FF0004282EA2000E5
:105840007047000010F0004148BF4042B0FA80F3BA
:1058500010FA03F2C3F19D030BD051EAC35101EBDF
:105860001220530638BF704700F1010008BF20F036
:10587000010070474FF47F0C1CEAD0121EBF1CEAD7
:10588000D11392EA0C0F93EA0C0F00F0478090EAD4
:10589000010F48BF42F480724FF0004C4CEA0020E8
:1058A0004CEA012102EB0302A0FB0113A2F5000266
:1058B000002918BF43F001035B0028BF4FEA330300
:1058C00042EB22425FEA132C4CEBC2502EBFBCEBE2
:1058D000436FB2F57C0F70474FEA036CBCF1004F89
:1058E00008BF20F00100B2F57C0F38BF70470BD520
:1058F00082F0FF0212F5803FC8BF704700F1C04040
:10590000D8BF00F00040704700F5000C5FEA4C0C77
:1059100048BF7047B0F1C04000F073B890EA010F83
:105920000CEAD11348BF42F48072624538BF634528
:1059300004D280EA010000F00040704710B500F08A
:105940001AF800BF8900013E00F007B800F009B85E
:105950005FEA410C5FEA1C6C08D080EA010000F0AD
:1059600050B85FEA400C5FEA1C6CF6D14FF0004083
:10597000A0F5800070470EF1020E2EF0030E5EF8C7
:10598000044B244204D44FEA4102B2F17F4F11D8B4
:105990004FEA4003B3F17F4F0CD80ED14FEAD07CD1
:1059A000B2F17F4F0CEB4C0C0CF1020C08BF4CEB2E
:1059B000D17C04E04FF0080C01E04FEAD17C0CEB05
:1059C0004C0324FA03F404F00704B4F1040C06D2E7
:1059D0000EEB840CBDE810404CF0010C6047DFE892
:1059E0000CF0070802024FF00040A0F5800010BD47
:1059F0000846420018BFD2F1807288BF00F0004014
:105A000010BDFF2141EAD050C00570470CF00F03D4
:105A1000092B08BF082000F051800A2B0BD0082B5F
:105A200018BF704708BF1CF0400F0AD04FF00000AD
:105A30004FF0000170471CF0400F18BF4FF00040BE
:105A400070471CF0100F08D020F0704300F07F4228
:105A500042EAD3014FEA4370704700F0604021F002
:105A60007F4242EA000201F07F4040EA72707047D4
:105A70004FF0FF0212EAD0521CBF92F0FF038B429C
:105A8000C2BFD14200EBC1507047002A0AD0002BA0
:105A90000BD0002900F00040A4BF40F0FE4040F4CD
:105AA0000000704700F00040704743024FF00B0CBD
:105AB00018BF4CF0806C7FF4A3AE70471CF4801FBD
:105AC00011D01CF4E02F03D06FEACC3149007047AD
:105AD0004FF04050EFF3008222F0704242EA0002A1
