:020000040800F2
:10000000580F0020ED010008F50100080532000836
:10001000F9010008FB010008FD01000800000000D4
:10002000000000000000000000000000FF010008C8
:100030000102000800000000030200081D60000823
:10004000070200080702000807020008070200086C
:10005000070200080702000807020008070200085C
:10006000070200080702000807020008070200084C
:10007000070200080702000807020008070200083C
:1000800007020008000000004F03000807020008F4
:10009000070200080702000807020008070200081C
:1000A000FD6000084161000807020008070200081F
:1000B00007020008070200080702000807020008FC
:1000C00007020008070200080702000807020008EC
:1000D0000702000807020008957F000807020008D1
:1000E00025040008070200080702000807020008AC
:1000F00007020008070200080702000800000000CD
:1001000000000000070200080000000007020008CD
:1001100007020008000000000702000807020008AC
:10012000070200080702000807020008070200088B
:10013000070200080000000000000000070200089D
:10014000070200080702000800000000000000008D
:10015000000000000000000000000000000000009F
:10016000000000000000000000000000070200087E
:10017000070200080000000000000000000000006E
:10018000000000000702000800000000000000005E
:10019000000000000000000000000000000000005F
:1001A000000000000000000007020008070200082D
:1001B000070200080702000807020008000000000C
:1001C000000000000702000800000000000000001E
:1001D0000702000807020008DFF80CD000F07AF8E8
:1001E000004800476D820008580F002006488047ED
:1001F00006480047FEE7FEE7FEE7FEE7FEE7FEE70C
:10020000FEE7FEE7FEE7FEE7E1600008D90100082F
:100210002DE9F05F0546002092469B46884606463B
:10022000814640241BE0284641464746224600F0CE
:1002300041F853465A46C01A914110D31146184608
:10024000224600F028F82D1A67EB01084F46224697
:100250000120002100F01FF817EB00094E41201E7D
:10026000A4F10104DFDC484631462A464346BDE896
:10027000F09FD2B201E000F8012B491EFBD270477B
:100280000022F6E710B513460A4604461946FFF762
:10029000F0FF204610BD202A04DB203A00FA02F1CC
:1002A000002070479140C2F1200320FA03F3194364
:1002B00090407047202A04DB203A21FA02F0002106
:1002C000704721FA02F3D040C2F120029140084366
:1002D00019467047064C074D06E0E06840F0010300
:1002E00094E8070098471034AC42F6D3FFF778FF44
:1002F000148B0008348B000870B58C1810F8015B63
:1003000015F0070301D110F8013B2A1106D110F8AE
:10031000012B03E010F8016B01F8016B5B1EF9D1B2
:100320002B0705D40023521E0DD401F8013BFAE738
:1003300010F8013BCB1A921C03E013F8015B01F8A3
:10034000015B521EF9D5A142D8D3002070BD10B573
:100350004FF0A0414020086006F036F8BDE810409C
:1003600007F0C0B810B4024608460FFA81FC1CFB27
:100370000CF40B1413FB0341148864438C4224BF18
:1003800010BC704792F8B240C4EB1161C9B202EBE5
:1003900041018A8810BC0CFB02F14FEAE17C01EBC1
:1003A0005C41C91361F30F0003FB02F1CA1701EBB3
:1003B0005241C91361F31F407047000010B590F817
:1003C0003010094C002207F001F9210101FA80F1F7
:1003D000064802686FF30F1211430160606840F035
:1003E0000100606010BD0000000800500C080050C3
:1003F000084490F83000704700EB4100B0F932003B
:10040000704700000248016841F001010160704737
:1004100000080050084480F83020704700EB41008D
:10042000428670470548016811F4806F08BF704725
:100430004FF48061016007F0BFBB0000140401406D
:10044000002190B14378017800221944002B09D98A
:1004500000EB020C521C9CF802C0D2B2614489B27B
:100460009342F5D801EB1120C1B208467047002134
:1004700041820175417580F8961080F8971080F8D8
:10048000981080F8991080F89A1080F81B1180F865
:100490001C1180F81D117047DDF800C0002818BF3E
:1004A00080E80E107047000000EB400101EB0012E5
:1004B00010B5084901EB420494F82410002918BF34
:1004C00010BD054951F8200005F070F9E083208245
:1004D00010BD0000C40900201407002010B5044618
:1004E00000EB440000EB04121248002100EB420232
:1004F000114811605160D1601161D183C2F81610AA
:10050000C2F81A10118450F8240003F020FE0B48A2
:10051000002150F8240003F01AFE094850F8240086
:1005200005F072F9074850F82400BDE8104003F0C8
:1005300099BF0000C40900201C07002020070020EC
:10054000140700202C070020704700002DE9F00759
:1005500082B00023009390F858409C461A46012C24
:1005600001BF022002B0BDE8F0077047012480F807
:1005700058404669FD4D002E1CBF0E6A012E02D068
:10058000876EDFB129E04A68092A3BD18A6A4FF4B5
:100590007856002A04BF0A6806EA524207D00F685C
:1005A00002F07C0206EA57463243CE6A32430668BE
:1005B000F76C3D401543F564426623E0C0E919C677
:1005C0008A6A002A04BF0A6A521E06D00E6A02F026
:1005D0007C02761E3243CE6A32430E680F79C6F330
:1005E000846607F01F07BE403243866E761E86661D
:1005F000476E47EA0202426604D10668F76C3D4046
:100600002A43F2640268956815F0080F0AD191F840
:100610002550B5B1D56891F8266025F4401545EA16
:100620004655D560026895689668C5F38005C6F39F
:10063000C00655EA06074FF004054FF007060CD038
:100640007DE091F8265091F824606D0545EA065545
:10065000D66826F440163543E3E78F6A002F1CBFA7
:10066000CF6A002F91F8257073D0012F1CBFD76877
:1006700027F0007777D0D76091F83020012A79D021
:100680000268176927F0020717618A68B2F1004F04
:100690007DD0D1F80080076805EAD8594F44D7F8D3
:1006A0001490C8F3045806FA08FA29EA0A0902FA6B
:1006B00008F249EA02027A610268576927F00047A6
:1006C000576102684F69D2F80C80C8F3C1084FEA3D
:1006D000480807FA08F80F69042F72D002EB870266
:1006E000D1F80090176EDFF888A209F0F84907EA00
:1006F0000A0749EA080847EA080747F0004717666B
:10070000D0F800800A698F6908EB8202D2F8608015
:1007100028F0807848EA070717660F7FD0F8008036
:100720000A69012F0CBF4FF00077002708EB820207
:10073000D2F8608028F0007848EA07071766026858
:10074000976817F0010F40F07181C9E001E00AE0FD
:1007500010E0012FD7680EBF47F0007727F0007731
:10076000D76089D187E7C26D42F02002C2650123BC
:1007700082E70CE0D1E90D2717430268D2F8108018
:1007800028F4FF7848F0020847EA08077CE70F687A
:10079000026805EAD7594A444FF00008D2F814908D
:1007A000C7F3045706FA07FA29EA0A0908FA07F70D
:1007B00049EA070757610268576947F000477FE732
:1007C000FFE7176E00277F037F0B7CD0176E07F0C3
:1007D000F84797FAA7F7B7FA87F80F68C7F312092F
:1007E000B9F1000F0EBFC7F3846797FAA7F7B7FAFE
:1007F00087F7B84503D1176E27F0004717660268E0
:10080000576E0027121D7F037F0B176E07F0F84706
:100810000EBF4FEA976897FAA7F7B7FA87F80F68FD
:10082000C7F31209B9F1000F0EBFC7F3846797FA37
:10083000A7F7B7FA87F7B84503D1176E27F0004737
:1008400017660268976E002708327F037F0B176ECA
:1008500007F0F8470EBF4FEA976897FAA7F7B7FA7D
:1008600087F80F68C7F31209B9F1000F0EBFC7F37D
:10087000846797FAA7F7B7FA87F7B84503D1176ED9
:1008800027F0004717660268D76E00270C327F03F7
:100890007F0B176E07F0F8470EBF4FEA976897FA7D
:1008A000A7F7B7FA87F80F68C7F31209B9F1000F75
:1008B0000EBFC7F3846797FAA7F7B7FA87F7B8456B
:1008C00008BF176E00E005E008BF27F000477FF47F
:1008D00036AF33E7176E07F0F8474FEA97687CE7C3
:1008E00091F80C800F68D2F8B090C7F3120A29EA89
:1008F0000A09DFF880A008F018082AFA08F808EAC0
:10090000070749EA0707C2F8B070CA68A2F1804732
:10091000B7F5FE077ED10A68076812EA0A081ABF0F
:1009200092FAA2F8B8FA88F8C2F3846808F10108CC
:1009300008F01F08B8F1090FC2F3120832D8B8F155
:10094000000F1ABF92FAA2F8B8FA88F8C2F38468C6
:1009500008F1010808F01F0804FA08F80EBFC2F3F6
:10096000846492FAA2F4B4FA84F405E0004010041E
:1009700000F0FF03FFFF070004F1010404F01F046F
:1009800048EA84640EBFC2F3846292FAA2F2B2FA19
:1009900082F202F1010202F01F0202EB420244EA7B
:1009A000025230E0B8F1000F0EBFC2F3846892FA31
:1009B000A2F8B8FA88F808F1010808F01F0804FA4C
:1009C00008F80EBFC2F3846492FAA2F4B4FA84F475
:1009D00004F1010404F01F0448EA84640EBFC2F36A
:1009E000846292FAA2F2B2FA82F202F1010202F0F9
:1009F0001F02DFF8288102EB420208EB025244EAB0
:100A0000020242F0007205EAD2543C44D1F8088058
:100A1000656900E00AE0C2F3045206FA02F625EA2C
:100A2000060508FA02F245EA020262610C683C49D6
:100A30000C4267D04FF0A041D1F8081304F1705573
:100A400001F0E072374915F55F051ABF364DAC422B
:100A500012F4000F11D0354D04F1605616F52E0634
:100A600008BF12F0807F38D004F1505616F5F80612
:100A700008BF12F4800F3BD044E00468B4F1A04FEB
:100A800040D18C6842F4000224F0E07422438A6072
:100A90002749284A0968B1FBF2F101EB41018900BD
:100AA000009101912ED0B1F1004F32D20029D8BF70
:100AB000002105DD11F0010102D0009A521E0092C2
:100AC000019A491C521C91421CDA009C891C641E2C
:100AD000641E00949142F8DB14E00468AC4211D02B
:100AE0008C6842F0807224F0E07422438A6009E04E
:100AF0000468AC4206D08C6842F4800224F0E074B2
:100B000022438A6080F858C002B01846BDE8F0075A
:100B100070470099491E0091FCD1F3E7000020FEC8
:100B200000000880000300501000C0900001005039
:100B300068070020400D030090F858204FF0000C8B
:100B4000012A04BF0220704770B49BB0012280F8D4
:100B5000582002680024B2F1A04F0AD0C16D41F0C4
:100B60002001C16580F858401BB04FF0010070BCF7
:100B70007047274B00939B689268C3F3800312F081
:100B8000040F08BF002B0BD0C16D41F02001C165DF
:100B90004FF0010C80F858401BB0604670BC7047A5
:100BA0001C4A0D684FF0A043FDB1956890F838607D
:100BB00025F4604545EA46354E6845EA06059560E8
:100BC0009D68D3F8083145EA030313F0010FE1D122
:100BD0000B68896843EA0101936823F01F0323F43B
:100BE000706341EA03019160D4E7916821F46041A8
:100BF00091609968D3F8083141EA030111F0010FBF
:100C000002BF916821F01F0121F47061C2D1EAE7AF
:100C100000010050000300502DE9F00785B00023CB
:100C2000019390F858209C46012A01BF022005B08C
:100C3000BDE8F0077047012480F8584002689568C5
:100C400015F0040F0BD0C16D41F02001C1650123E7
:100C500080F858C005B01846BDE8F0077047D1E9E4
:100C600000650C2707EA95173A44176B05F01F0536
:100C70004FF01F0808FA05F8C6F3846627EA08074C
:100C800006FA05F53D431563026895689668C5F355
:100C90008005C6F3C00655EA06074FF004054FF07D
:100CA000070658D18F68B7F1004F5BD0D1F80080AC
:100CB00005EAD8594A44D2F81490C8F3045806FA01
:100CC00008FA29EA0A0907FA08F749EA0707576103
:100CD0000268576927F00047576102684F69D2F8E8
:100CE0000C80C8F3C1084FEA480807FA08F80F69F2
:100CF000042F4FD002EB8702D1F80090176EDFF877
:100D0000C4A309F0F84907EA0A0749EA080847EACC
:100D1000080747F000471766D0F800800A698F6916
:100D200008EB8202D2F8608028F0807848EA070752
:100D300017660F7F0268D1F81080012F0CBF4FF0AB
:100D40000077002702EB8802D2F8608028F0007854
:100D500048EA070717660268976817F0010F40F026
:100D600039819FE00F684FF0000805EAD7594A44DF
:100D7000D2F81490C7F3045706FA07FA29EA0A09C9
:100D800008FA07F749EA070757610268576947F009
:100D90000047A1E7176E00277F037F0B176E07F050
:100DA000F8471ABF97FAA7F7B7FA87F84FEA976894
:100DB0000F68C7F31209B9F1000F0EBFC7F38467BC
:100DC00097FAA7F7B7FA87F7B84503D1176E27F058
:100DD000004717660268576E0027121D7F037F0BBE
:100DE000176E07F0F8470EBF4FEA976897FAA7F714
:100DF000B7FA87F80F68C7F31209B9F1000F0EBFF1
:100E0000C7F3846797FAA7F7B7FA87F7B84503D10E
:100E1000176E27F0004717660268976E00270832A2
:100E20007F037F0B176E07F0F8470EBF4FEA9768F6
:100E300097FAA7F7B7FA87F80F68C7F31209B9F15D
:100E4000000F0EBFC7F3846797FAA7F7B7FA87F7C3
:100E5000B84503D1176E27F0004717660268D76EB2
:100E600000270C327F037F0B176E07F0F8470EBF89
:100E70004FEA976897FAA7F7B7FA87F80F68C7F3AA
:100E80001209B9F1000F0EBFC7F3846797FAA7F7ED
:100E9000B7FA87F7B84504BF176E27F000477FF40D
:100EA0005AAF57E791F80C800F68D2F8B090C7F3AB
:100EB000120A29EA0A09DFF810A208F018082AFA2B
:100EC00008F808EA070749EA0707C2F8B070CA68D5
:100ED000A2F18047B7F5FE077CD10A68D0F8008000
:100EE00012EA0A071ABF92FAA2F7B7FA87F7C2F313
:100EF00084677F1C07F01F07092FC2F312072AD847
:100F0000002F1ABF92FAA2F7B7FA87F7C2F38467E5
:100F100007F1010707F01F0704FA07F70EBFC2F336
:100F2000846492FAA2F4B4FA84F404F1010404F0A3
:100F30001F0447EA84640EBFC2F3846292FAA2F2ED
:100F4000B2FA82F202F1010202F01F0202EB420247
:100F500044EA02522EE0002F0EBFC2F3846792FAD9
:100F6000A2F7B7FA87F707F1010707F01F0704FA9E
:100F700007F70EBFC2F3846492FAA2F4B4FA84F4C1
:100F800004F1010404F01F0447EA84640EBFC2F3B5
:100F9000846292FAA2F2B2FA82F202F1010202F043
:100FA0001F024A4F02EB420207EB025244EA0202DE
:100FB00042F0007205EAD25444448F686569C2F376
:100FC000045206FA02F625EA060507FA02F245EA95
:100FD000020262610C683E490C423FF439AE4FF0A8
:100FE000A041D1F8081304F1705501F0E0723949BD
:100FF00015F55F051ABF384DAC4212F4000F1DD035
:10100000364D04F1605616F52E0608BF12F0807FAB
:1010100047D004F1505616F5F80608BF12F4800FB9
:101020007FF416AE0468AC423FF412AE8C6842F412
:10103000800224F0E07422438A6009E60468B4F177
:10104000A04F7FF405AE8C6842F4000224F0E074F7
:1010500022438A602249234A0968B1FBF2F101EB7D
:1010600041018900019100913FF4F2ADB1F1004FCF
:1010700023D20029D8BF002105DD11F0010102D0E3
:10108000019A521E0192009A491C521C9142BFF6CD
:10109000DFAD019C891C641E641E01949142F8DB43
:1010A000D6E50468AC423FF4D3AD8C6842F0807260
:1010B00024F0E07422438A60CAE50199491E019137
:1010C000FCD1C5E500F0FF03FFFF0700000020FE94
:1010D00000000880000300501000C0900001005084
:1010E00068070020400D030070B584B04FF0000584
:1010F00004002E46029502BF012004B070BDE06DD1
:1011000028B9204600F00EF9266684F85860206859
:101110008168C1F3407129B1816821F03F0121F05C
:101120002041816020688168C1F3007149BB8168FA
:1011300021F03F0121F0004141F08051816074486D
:1011400074490068B0FBF1F002900090C8B1B0F1B2
:10115000004F80F0D7800028D8BF002005DD10F0B8
:10116000010002D00299491E02910099401C491CBD
:10117000884206DA029A801C521E521E029288424F
:10118000F8DB20688168C1F3007141B9E16D41F07D
:101190001001E165216E41F00101216601258168A0
:1011A000E26DC1F3800112F0100F08BF002908D0D2
:1011B000E06D40F01000E0654FF0010504B02846F6
:1011C00070BDE16D21F4807141F00201E16580683C
:1011D00010F0010F11D14FF0A0408168D0F8080144
:1011E00041EA000010F0010F07D14B4861688268A6
:1011F00022F47C1242EA01018160E168E06B627FC7
:1012000040EA0100A16841EA423140EA010094F855
:10121000241040EA0140012904D1218D3F4A02EB0C
:1012200041410843E16A21B101F47871226B08431E
:1012300010432168CA683A4B1A401043C8602068BE
:101240000169626B21F0406111430161206881688E
:101250008268C1F38001C2F3C00211432FD1217F04
:1012600094F83820890341EA4201C26822F0020260
:1012700022F480421143C16020690028206801697E
:101280000AD041F4803101612068D0F8C010226991
:101290006FF30D01114307E021F4803101612068F3
:1012A000D0F8C0106FF30D01C0F8C01094F84000E2
:1012B00001280CD02068016921F0010101616069F9
:1012C00001282068016B21F00F0113D10FE0D4E950
:1012D00011010843D4E91312114340EA01022068C6
:1012E00001696FF38A01114341F00101E6E7226AC7
:1012F000521E11430163E06D20F0020040F0010036
:10130000E0655BE70298401E0290FCD139E70000DF
:1013100068070020400D0300000300500000FEFF9E
:101320000740F0FF30B587B000252F4A00950195A2
:10133000029503950495036810680324411C2B480B
:10134000B3F1A04F0AD0A3F1A04CBCF5807C1CBF28
:1013500007B030BD1160012933D12AE011600129A5
:1013600007D1C16C41F40051C164C16C01F400515A
:101370000591C16C41F00101C164C16C01F0010132
:101380000591C16C41F00201C164C06C694600F076
:10139000020005900520CDE900044FF0904000F0D8
:1013A000B3FA44F20200CDE9000469460295104800
:1013B00015E0C16C41F40051C164C16C01F40051ED
:1013C0000591C16C41F00101C164C06C694600F037
:1013D000010005904020CDE900044FF0904000F05E
:1013E00093FA07B030BD00005807002000100240FB
:1013F0000004004830B5040085B04FF000000546F9
:10140000019004D02168096811F0004F01D0012536
:101410009CE0617F21B920772062204600F0B0F87F
:1014200020680168D4F80CC001F40002D4E901314D
:101430001943636943EA0C03194323691943036899
:10144000DFF81CC103EA0C03194301602168086836
:1014500010F4000F24D01ABB4248434A0068B0FB86
:10146000F2F000EB800080000190009018D0B0F105
:10147000004F6FD20028D8BF002005DD10F001001A
:1014800002D0019A521E0192009A401C521C9042B6
:1014900006DA019B801C5B1E5B1E01939042F8DB09
:1014A000A1F18040B0F5813008BF4FF400110CD09D
:1014B0002E48814208BF4FF4800106D02C4881425B
:1014C0000CBF4FF000514FF08041A369294A13F03F
:1014D000030FA2F104002DD013F0100F02F104034A
:1014E000D3F800C00CBF2CEA010C4CEA010CC3F885
:1014F00000C0237E13F0200F1F4BD3F800C014BF91
:101500004CEA010C2CEA010CC3F800C01B4B19601B
:10151000237E13F0020F136814BF0B438B43136039
:10152000227E12F0010F026814BF114322EA01016A
:10153000016006E013688B431360026822EA010130
:101540000160607F002804BF01206077284605B055
:1015500030BDFFE70198401E0190FCD1A0E70000DC
:101560000F7E00FF68070020400D030004020140C9
:1015700008020140040401400C040140140401402D
:1015800000B587B00021009101910291039104916F
:10159000026820480321A2F18043B3F5813314D0BF
:1015A0001D4B9A4220D1C26C42F00102C264C06C51
:1015B00000F0010005908020CDE9000169464FF060
:1015C000904000F0A1F907B000BDC26C42F00102EA
:1015D000C264C06C00F0010005900220CDE900015A
:1015E00069464FF0904011E00C4B9A421CBF07B087
:1015F00000BDC26C42F00202C264C06C00F0020086
:1016000005900120CDE900016946054800F07CF90C
:1016100007B000BD00100240040201400C0201406E
:1016200000040048002804BF0120704770B504463C
:1016300090F82100002520B984F82050204600F0C1
:101640000BF865626560A560E56025610120656154
:1016500084F82100002070BD006881B0A0F18041B5
:10166000B1F503311CBF01B070470548816C41F0F2
:1016700008018164806C00F00800009001B07047A0
:10168000001002402DE9F047044640790D4601283C
:1016900004BF0220BDE8F0874FF0010884F8058000
:1016A00002202071A86802F0100604284DD14FF0E6
:1016B000030992B12068406B10F0004F2CD000BF9E
:1016C00000F034FA012822D9206940F00800206196
:1016D00084F804900320BDE8F08700F027FA07465D
:1016E0002068406B10F4004F0AD000BF00F01EFAD3
:1016F000C01B0128E8D82068406B10F4004FF5D1DA
:10170000012000F0EDF82168686A08640AE02068AA
:10171000406B10F0004FD3D1012000F0E1F82168B8
:10172000686A48642068816C40F2FF32B24091439D
:10173000AA6AB240114381642068C16CFF22B240A2
:101740009143EA6AB2401143C164E869012808D1B3
:101750002168886B1F22B24090432A6AB24010432E
:1017600088632068C06B0721B14020EA0101A869A5
:1017700010F0010F05D110F0020F5AD1686900284E
:1017800057D000206B69AA681A4302434FF4807057
:10179000B04021EA0000297901290CBF4FF4807183
:1017A000002111434FF40072B24090436A79012A3C
:1017B0000CBF4FF40072002242EA010920F44047B6
:1017C0002868022818BF074335D000BF216809FAEE
:1017D00006F03843C863206801684FF48042B24085
:1017E000914301602168086840F6FE72B240904360
:1017F000EA68B2401043086020680168C022B24025
:1018000091430160287B297CC0F3830001F03C01F7
:1018100040EA811021680A6E40F60F73B3409A4384
:10182000B0401043086684F8048000206071BDE871
:10183000F0870120A6E700F0EBFC0649884288BF4C
:1018400047F40047C2D80449884288BF47F480471C
:10185000BCE700000068890900B4C404002804BF84
:101860000120704770B504460079002518B96571EC
:10187000204600F007F80220207125610120207128
:10188000002070BD00B587B0002100910191029148
:10189000039104910068A0F1A041B1F500611CBF63
:1018A00007B000BD0D48C16C41F48031C164C16C0A
:1018B00001F480310591C16C41F00101C164C06C3B
:1018C000694600F00100059010200090032001906F
:1018D0004FF0904000F018F807B000BD0010024033
:1018E00070B5044600F022F90546B4F1FF3F02D07E
:1018F00004484068044400F019F9401BA042FAD3A0
:1019000070BD00005C0700200B680022002B08BFA0
:1019100070472DE9F84F804EDFF800E201274FF0C5
:10192000030A4FF00F0800BF0B6807FA02F52B40BF
:1019300000F0EB80D1F804C0BCF1020F18BFBCF17D
:10194000120F15D14FEAD20C00EB8C04D4F8209082
:101950004FEA427C4FEADC6C08FA0CFB29EA0B09DF
:10196000D1F810B00BFA0CFC4CEA090CC4F820C0FA
:10197000D0F800904FEA420C91F804B00AFA0CF447
:101980000BF0030B29EA04090BFA0CFB4BEA0909DB
:10199000C0F80090D1F80490B9F1010F18BFB9F167
:1019A000020F05D0B9F1110F18BFB9F1120F18D1FC
:1019B000D0F80890D1F80CB029EA04090BFA0CFB16
:1019C0004BEA0909C0F80890D0F8049029EA050507
:1019D00091F80490C9F3001909FA02F949EA0505DA
:1019E0004560C56825EA04048D6805FA0CFC4CEADC
:1019F000040CC0F80CC0D1F804C01CF0805F7CD08F
:101A0000D6F860C04CF0010CC6F860C0D6F860C0D3
:101A10000CF0010CCDF800C022F0030C0CF1804456
:101A200004F58034A5684FEA827C4FEA1C7C08FAF2
:101A30000CF925EA0905B0F1904F08BF4FF00009F5
:101A400028D0A0F19049B9F5806908BF4FF001098D
:101A500020D0A0F19049B9F5006908BF4FF0020904
:101A600018D0A0F19049B9F5406908BF4FF00309BB
:101A700010D0A0F19049B9F5805908BF4FF0040982
:101A800008D0A0F19049B9F5A0590CBF4FF0050955
:101A90004FF0060909FA0CFC4CEA050CC4F808C022
:101AA000DEF800C04C682CEA030C14F4803F18BF29
:101AB0004CEA030CCEF800C0194CD4F800C04D68B5
:101AC0002CEA030C15F4003F18BF4CEA030CC4F8D1
:101AD00000C0144CD4F800C04D682CEA030C15F477
:101AE000801F18BF4CEA030CC4F800C00E4CD4F899
:101AF00000C04D682CEA030C00E006E015F4001F5E
:101B000018BF4CEA030CC4F800C00B68521CD34049
:101B10007FF40AAFBDE8F88F0010024000040140D6
:101B200004040140080401400C040140014880689D
:101B3000704700005C070020024881684268114439
:101B4000816070475C07002010B50024032000F07E
:101B500087F8042000F008F8002814BF012400F0E2
:101B600025F8204610BD000070B50E4E0546002435
:101B7000706898B14FF47A71B1FBF0F00A490968C6
:101B8000B1FBF0F000F00CFE40B9102D06D200229F
:101B90002946501E00F032F8356000E0012420464E
:101BA00070BD00005C070020680700200A4882B072
:101BB000016E41F001010166016E01F00101009129
:101BC000816D41F080518165806D00F08050009002
:101BD000042002B000F044B8001002400028B8BF52
:101BE000704700F01F01012202FA01F14009800054
:101BF00000F1E020C0F8001170470000174B10B44E
:101C00001B68C3F30223C3F1070CBCF1040F88BFA8
:101C10004FF0040C1C1D072C34BF0023DB1E0124D5
:101C200004FA0CFCACF1010C0CEA0101994004FA35
:101C300003F35B1E1A40114300284FEA0111A1BFB4
:101C400000F1E02080F8001410BC704700F00F0095
:101C500000F1E02080F8141D10BC70470CED00E08E
:101C6000074900F007000A684FF6FF031A4042EAEE
:101C7000002040F0FD7040F0806008607047000078
:101C80000CED00E02C4932222C4B09684A432C49C8
:101C900050B1B0F5007F08682BD020F4C06040F44C
:101CA0008060086000207047086800F4C060B0F5EC
:101CB000806FD1F8800020F4807002D0C1F88000DD
:101CC000F0E7C1F88000086820F4C06040F40070BC
:101CD0000860B2FBF3F000F101004A6912F4806F72
:101CE0001CBF0028401EF8D1486910F4806F20D135
:101CF000D8E700F4C060B0F5806FD1F8800040F400
:101D00008070DBD1C1F88000086820F4C06040F426
:101D100000700860B2FBF3F000F101004A6912F4B0
:101D2000806F1CBF0028401EF8D1486910F4806FF6
:101D3000B8D04FF0030070476807002040420F0002
:101D4000007000402DE9F843044600680027AC4DC0
:101D500010F4002F6DD0A86D4FF0000810F0805FD8
:101D600009D1A86D40F08050A865A86D4FF001081A
:101D700000F080500090DFF88C92D9F8000040F419
:101D80008070C9F80000FFF7D1FE0646D9F80000C0
:101D900010F4807F0AD100BFFFF7C8FE801B022825
:101DA00031D8D9F8000010F4807FF5D0D5F8900034
:101DB00010F440701CBF216C814211D0D5F8900006
:101DC000D5F8901020F4407041F48031C5F890109F
:101DD000D5F8901021F48031C5F89010C5F8900026
:101DE00010F0010F16D0FFF7A1FE0646D5F89000BF
:101DF00010F0020F08BF41F288390BD1FFF796FEB1
:101E0000801B484501D903270CE0D5F8900010F05D
:101E1000020FF3D0D5F89000216C20F440700843F5
:101E2000C5F89000B8F1000F03D0A86D20F08050E5
:101E3000A865207810F0010F07D0D5F888006168F8
:101E400020F003000843C5F88800207810F0020F46
:101E500007D0D5F88800A16820F00C000843C5F829
:101E60008800207810F0040F07D0D5F88800E168CA
:101E700020F030000843C5F88800207810F0080FE3
:101E800007D0D5F88800216920F0C0000843C5F8C4
:101E90008800207810F0200F07D0D5F888006169FD
:101EA00020F440600843C5F88800207810F0400F07
:101EB00007D0D5F88800A16920F440500843C5F840
:101EC0008800207810F0800F07D0D5F88800E169ED
:101ED00020F440400843C5F88800208810F4807F33
:101EE00007D0D5F88800216A20F440300843C5F8AF
:101EF0008800208810F4007F07D0D5F88800616A38
:101F000020F440200843C5F88800208810F4806F32
:101F10000FD0D5F88800A16A20F440100843C5F816
:101F20008800A06AB0F5801F03D1E86840F48010F3
:101F3000E860208810F4006F0FD0D5F88800E16ABF
:101F400020F440000843C5F88800E06AB0F5800F2F
:101F500003D1E86840F48010E860208810F4805FC6
:101F60000FD0D5F88800216B20F040700843C5F8E9
:101F70008800206BB0F1807F03D1E86840F48010C6
:101F8000E860208810F4005F0FD0D5F88800616BFE
:101F900020F040600843C5F88800606BB0F1006F26
:101FA00003D1E86840F48010E860208810F4804F86
:101FB0000FD0D5F88800A16B20F040600843C5F829
:101FC0008800A06BB0F1006F03D1E86840F4801086
:101FD000E860208810F4004F0FD0D5F88800E16B3E
:101FE00020F040500843C5F88800E06BB0F1805FF6
:101FF00003D1E86840F48030E8603846BDE8F883F3
:1020000000100240007000402DE9F0470E46050028
:102010004FF000087ED0764F386800F00F008642FF
:1020200009D9386820F00F0030433860386800F074
:102030000F00B0426ED129686E4C11F0010F41F2D1
:10204000883A66D06868DFF8B091032806D0022885
:10205000206832D010F4806F5CD031E0206810F03E
:10206000007F57D0E06800F00302E068C0F303107F
:10207000401C032A19D0614AB2FBF0F0E268C2F3B7
:1020800006225043E268C2F34162521C5200B0FB88
:10209000F2F0484520D9A06810F0F00F14D011F0EC
:1020A000020F19D0A86878B116E0554AB2FBF0F0DB
:1020B000E268C2F306225043E4E710F4003F60D028
:1020C00000F0D0F8484507D9A06820F0F00040F0B3
:1020D0008000A0604FF08008A068696820F00300CD
:1020E0000843A060FFF722FD8146A068696800F000
:1020F0000C00B0EB810F0CD0FFF718FDA0EB09002E
:1021000050453BD8A068696800F00C00B0EB810F27
:10211000F2D100E035E0286810F0020F34D010F062
:10212000040F03D0A06840F4E060A060287810F0AD
:10213000080F05D0A06820F4605040F4E060A06073
:10214000A068A96820F0F0000843A060386800F09B
:102150000F00B04225D9386820F00F0030433860B6
:10216000FFF7E4FC8046386800F00F00B04218D05A
:10217000FFF7DCFCA0EB080050450DD90320BDE8BB
:10218000F0870120BDE8F087B8F1800F04BFA06898
:1021900020F0F000DAD1D8E7386800F00F00B04244
:1021A000E6D1287810F0040F05D0A068E96820F483
:1021B000E0600843A060287810F0080F06D0A068FF
:1021C000296920F4605040EAC100A06000F04AF89C
:1021D000A1680C4AC1F30311515C01F01F01C84012
:1021E0000949086009480068BDE8F047FFF7BCBC32
:1021F000002002400010024000B4C4040024F40097
:1022000000127A00E08A0008680700205C070020BE
:10221000014800687047000068070020054806492B
:1022200000688968054AC1F30221515C01F01F0171
:10223000C84070476807002000100240F08A00087C
:102240000548064900688968054AC1F3C221515C06
:1022500001F01F01C84070476807002000100240CD
:10226000F08A00081849886800F00C021748042A10
:1022700008BF70478A6802F00C03154A082B04BF98
:10228000104670478B684FF00C0C3CEA03031CBFF0
:1022900000207047CB6803F0030CCB68C3F3031333
:1022A0005B1CBCF1030F14BFB0FBF3F0B2FBF3F007
:1022B000CA68C968C2F306225043C1F34161491C90
:1022C0004900B0FBF1F07047001002400024F40018
:1022D00000127A00002804BF012070472DE9F8435E
:1022E00005460078FF4F10F0010F55D0B868F96827
:1022F00000F00C0001F003010C2802D0082820D0C7
:1023000001E003291DD06868B0F5803F22D0B0F508
:10231000A02F38680CBF40F4802020F48030386053
:1023200038680CBF40F4803020F480203860686842
:1023300000B3FFF7FBFB0446386810F4003F0ED0F3
:102340002AE0386810F4003F26D06868002800F0C2
:10235000208221E0386840F480303860E7E7FFF7FA
:10236000E5FB001B642800F28481386810F4003F0C
:10237000F5D011E0FFF7DAFB0446386810F4003FAF
:102380000AD000BFFFF7D2FB001B642800F2718166
:10239000386810F4003FF5D1287810F0020F58D0BB
:1023A000B86800F00C01F8680C2900F0030002D0B6
:1023B000042911D001E002280ED0E868002838680E
:1023C00033D040F480703860FFF7B0FB04463868C3
:1023D00010F4806F17D020E0386810F4806F03D0BD
:1023E000E868002800F0D5817868297C20F0FE405C
:1023F00040EA01607860BC480068FFF7B5FB002840
:1024000040F0C78125E0FFF791FB001B022800F296
:102410003081386810F4806FF5D07868297C20F01E
:10242000FE4040EA0160786013E020F4807038607C
:10243000FFF77CFB0446386810F4806F09D000BFBA
:10244000FFF774FB001B02287ED8386810F4806FF9
:10245000F6D1287810F0080F32D068690028D7F834
:10246000940016D040F00100C7F89400FFF75EFB1F
:102470000446D7F8940010F0020F21D1FFF756FB65
:10248000001B022860D8D7F8940010F0020FF5D096
:1024900016E020F00100C7F89400FFF747FB044660
:1024A000D7F8940010F0020F0AD000BFFFF73EFBF0
:1024B000001B022848D8D7F8940010F0020FF5D17D
:1024C000287810F0040F78D0B86D4FF0000810F0A5
:1024D000805F09D1B86D40F08050B865B86D4FF09D
:1024E000010800F080500090804E306810F4807F2A
:1024F00013D1306840F480703060FFF717FB04465A
:10250000306810F4807F08D1FFF710FB001B022811
:102510001AD8306810F4807FF6D0A868012821D03E
:102520000528D7F890000CBF40F0040020F001000F
:10253000C7F89000D7F890000CBF40F0010020F0E1
:102540000400C7F8900000E093E0A86841F28836E4
:10255000D0B1FFF7EBFA0446D7F8900010F0020F65
:1025600007D023E0D7F8900040F00100C7F89000B2
:10257000E9E7FFF7DBFA001BB0427AD8D7F8900002
:1025800010F0020FF5D011E0FFF7D0FA0446D7F8AB
:10259000900010F0020F09D0FFF7C8FA001BB042FC
:1025A00067D8D7F8900010F0020FF5D1B8F1000FFE
:1025B00003D0B86D20F08050B865287810F0200F57
:1025C00032D0A8690028D7F8980016D040F0010052
:1025D000C7F89800FFF7AAFA0446D7F8980010F059
:1025E000020F21D1FFF7A2FA001B022841D8D7F829
:1025F000980010F0020FF5D016E020F00100C7F8A7
:102600009800FFF793FA0446D7F8980010F0020FED
:102610000AD000BFFFF78AFA001B022829D8D7F892
:10262000980010F0020FF5D1E869E8B3B9683C46AC
:102630000C2232EA01017BD00228206820F0807051
:10264000206019D0E06820F00300E060E06820F42A
:10265000881020F08070E060FFF768FA0546206877
:1026600010F0007F20D000BFFFF760FA401B022867
:1026700059D90320BDE8F883FFF758FA06462068C9
:1026800010F0007F09D000BFFFF750FA801B02282E
:10269000EFD8206810F0007FF6D1D5E908016FF07F
:1026A0000F0202EB011100E076E00843298E52048C
:1026B000490802EB4151AA6A41EA0221084395F810
:1026C00034104FF07E42490802EB4161084395F80F
:1026D0002C1040EAC160E168054A11400843E060FF
:1026E000206807E0001002405C07002000700040F6
:1026F0000C809F0140F080702060E06840F08070A6
:10270000E060FFF713FA0546206810F0007F43D120
:10271000FFF70CFA401B0228ABD8206810F0007FAE
:10272000F6D039E004E0206810F0007F9CD133E05F
:10273000012808BFBDE8F883E0682A6A00F00301B9
:10274000914226D1696A00F0F002090110399142E4
:102750001FD1AA6A00F4FE41B1EB022F19D195F8FE
:102760002C2000F07841B1EBC26F12D1298E00F419
:10277000C00249084905A1F50011914209D195F817
:10278000341000F0C06049084906A1F1007181428F
:1027900002D00120BDE8F8830020BDE8F88370472F
:1027A000411EB1F1807F24BF012070474FF0E0202F
:1027B0004161054AF02182F8141D00218161072141
:1027C00001610020704700000FE000E010B5FFF746
:1027D000E6FF10BD90F83C20012A04BF022070479C
:1027E00030B4012280F83C20CA688B6822F4407221
:1027F0001A434B6822F480621A430B6822F4006289
:102800001A430B6922F480521A434B6922F4005296
:102810001A430B6B22F480421A430B8B22F4702272
:1028200042EA0342DFF860C00368184C634518BFF2
:10283000A34204D1CD6922F0805242EA05026345E9
:1028400018BFA34217D10D8D22F4700242EA05523F
:102850000D6A22F0807242EA05024D6A22F000728F
:1028600042EA0502634518BFA34204D1C96A22F0B7
:10287000005242EA01025A644FF0000180F83C1015
:1028800030BC084670470000002C01400034014075
:1028900090F83C30012B0DBF0220012380F83C3022
:1028A0007047F0B41368042B20D004DC012B10D047
:1028B000022B15D003E0082B1ED0102B23D04FF095
:1028C000000C634665466446012922D0022934D0B3
:1028D00046E000254FF0010C4FF400730924F3E7A4
:1028E0000125AB024FF0020C0A24EDE70225AB02F2
:1028F0004FF0040C0B24E7E703254FF0080C4FF4CE
:1029000080530C24E0E70425EB024FF0100C0D245B
:10291000DAE701680E6E576826EA0C0607FA05F535
:10292000926805EA0C0C4CEA060CA2402CEA030C57
:102930001A4042EA0C020A6612E001684E6E5768BD
:1029400026EA0C0607FA05F5926805EA0C0C4CEA33
:10295000060CA2402CEA030C1A4042EA0C024A661A
:10296000002180F83C10F0BC0846704790F83C20ED
:10297000012A04BF0220704730B44FF0010C80F8E8
:102980003CC0022280F83D20026853689468A2F19E
:102990008045B5F596351CBFA2F18045B5F59A3551
:1029A00003D14D6823F470032B4323F070030D68AB
:1029B00023F000732B43896824F080042143536083
:1029C0000268916080F83DC0002180F83C1030BC66
:1029D00008467047002804BF0120704710B5044620
:1029E00090F83D0028B9002084F83C00204600F013
:1029F0000DF8022084F83D00211D206803F0ACFB97
:102A0000012084F83D00002010BD0000006881B066
:102A1000A0F18041B1F596311CBF01B07047054867
:102A2000016E41F400610166006E00F400600090E8
:102A300001B070470010024030B587B0002100910E
:102A400001910291039104910068A0F18041B1F5D8
:102A500096311CBF07B030BD1F48C16C41F0040166
:102A6000C164C16C01F004010591C16C41F0020127
:102A7000C164C16C01F002010591C16C41F001011A
:102A8000C164C06C022400F0010005904FF40050B6
:102A9000CDE900040425029469461048CDE90345B8
:102AA000FEF732FFA003CDE90004029469460C480A
:102AB000CDE90345FEF728FF4FF4B850CDE90004F7
:102AC00006200294CDE9034069464FF09040FEF79E
:102AD0001BFF07B030BD0000001002400008004896
:102AE000000400482DE9F04F054690F83C000C46E4
:102AF00001280DBF0220012685F83C60BDE8F08F5B
:102B0000022085F83D00DFF838C3CE4FDFF8388368
:102B1000CE49CF4B0C2A00F0C48006DC6AB1042AEF
:102B20005ED0082A71D000F083B9102A00F0068127
:102B3000142A00F0408100F07BB92868026A22F074
:102B400001020262026AD0F80490D0F818A0D4F80A
:102B500000B02AF0730A2AF4803A4BEA0A0AD4F841
:102B600008B022F002024BEA0202884218BF9842E3
:102B700004D060451CBFB842404507D1D4F80CB022
:102B800022F008024BEA020222F00402884218BF37
:102B9000984204D060451CBFB842404507D16369E4
:102BA00029F4407143EA0101A36943EA0109C0F82D
:102BB0000490C0F818A061684163026228688169C6
:102BC00041F0080181612868816921F00401816177
:102BD00028688169226941EA0201816100F028B90F
:102BE0002146286803F012FB2868816941F40061DE
:102BF00081612868816921F4806181612868816927
:102C0000226941EA0221E8E7FFE72868026A22F424
:102C100080720262026AD0F80490D0F81CA0D4F846
:102C200000B02AF0730A2AF4803A4BEA0A0AD4F870
:102C300008B022F4007242EA0B22884218BF984280
:102C400007D1D4F80CB022F4006242EA0B2222F43D
:102C50008062884218BF984204D060451CBFB842C9
:102C6000404507D1636929F4405141EA0311A36942
:102C700041EA0319C0F80490C0F81CA06168C16360
:102C800002622868C16941F00801C1612868C16910
:102C900021F00401C1612868C169226941EA020189
:102CA0004AE02868026A22F480520262026AD0F87E
:102CB0000490D0F81CA0D4F800B02AF4E64A2AF018
:102CC000807A4AEA0B2AD4F808B022F4005242EA89
:102CD0000B32884218BF984207D1D4F80CB022F4C6
:102CE000004242EA0B3222F48042884218BF9842E6
:102CF00004D060451CBFB842404507D1636929F440
:102D0000404141EA8311A36941EA8319C0F8049064
:102D1000C0F81CA06168016402622868C16941F4BE
:102D20000061C1612868C16921F48061C1612868BE
:102D3000C169226941EA0221C16179E02868026A19
:102D400022F480320262D0F820A04268D0F850907D
:102D5000D4F800B029F0700929F480394BEA090948
:102D6000B4F808B02AF4003A4AEA0B4A884218BF7D
:102D7000984204D060451CBFB842404504D122F4BB
:102D80008031626941EA02224260C0F85090616875
:102D90008164C0F820A02868016D41F00801016538
:102DA0002868016D21F0040101652868016D226920
:102DB00041EA02013BE02868026A22F480120262C2
:102DC000D0F820A04268D0F85090D4F800B029F490
:102DD000E04929F0807949EA0B29B4F808B02AF4CF
:102DE000001A4AEA0B5A884218BF984204D060453C
:102DF0001CBFB842404504D122F48021626941EAF7
:102E000082224260C0F850906168C164C0F820A07E
:102E10002868016D41F4006101652868016D21F4A5
:102E2000806101652868016D226941EA022101651E
:102E300085F83D604FF0000085F83C00BDE8F08F5C
:102E4000004001400044014000480140002C014086
:102E500000340140002804BF0120704710B504462B
:102E600090F83D0028B9002084F83C00204600F08E
:102E70000CF8022084F83D00211D206803F06CF955
:102E8000012084F83D00002010BD704770B5044655
:102E900090F83C00012804BF022070BD012584F891
:102EA0003C50022084F83D00204603F0F7F9010071
:102EB0004FF0000005D084F83D5084F83C0001201C
:102EC00070BD2168CA6822F04002CA602168CA68E1
:102ED00022F48042CA6084F83D5084F83C0000200F
:102EE00070BD90F87C10012904BF022070470121B9
:102EF00080F87C102421C0F8801001680A680B68F3
:102F000023F001030B6022F00051002242660368A7
:102F100019602021C0F8801080F87C20104670478E
:102F200090F87C10012904BF0220704710B40121E1
:102F300085B080F87C102422C0F8802002681368D5
:102F4000D2F800C02CF0010CC2F800C043F00052CF
:102F50004B07436603681A601BA3D3E90023CDE93E
:102F600000231BA3D3E90023CDE90223426E002AEC
:102F700004BFA0F86A10A0F868101AD0026891681F
:102F80009268C1F34261520F1DF802C04FEACC04AF
:102F90000DF1080C1CF80220B4FBF2F4A0F86A4012
:102FA0001DF801201CF80110D200B2FBF1F2A0F8CC
:102FB00068202021C0F88010002180F87C1005B026
:102FC000084610BC70470000010101030701000022
:102FD000080402040801010190F87C20012A04BFC2
:102FE0000220704730B4012384B080F87C30242262
:102FF000C0F880200268D2F800C0146824F00104F0
:1030000014600268946824F06064214391601B4955
:10301000D1E90021CDE90021194AD2E90012CDE918
:103020000212416E002904BFA0F86A30A0F868308F
:1030300016D001688A688968C2F34262490F1DF898
:103040000140E50002AC615CB5FBF1F5A0F86A5007
:103050001DF80210A25CC900B1FBF2F2A0F86820D2
:103060000168C1F800C02021C0F88010002180F85C
:103070007C1004B0084630BC70470000C82F000820
:10308000D02F000890F87C20012A04BF022070474E
:1030900030B4012384B080F87C302422C0F8802032
:1030A0000268D2F800C0146824F0010414600268B9
:1030B000946824F06044214391601B49D1E90021C8
:1030C000CDE90021194AD2E90012CDE90212416E80
:1030D000002904BFA0F86A30A0F8683016D0016853
:1030E0008A688968C2F34262490F1DF80140E50011
:1030F00002AC615CB5FBF1F5A0F86A501DF8021056
:10310000A25CC900B1FBF2F2A0F868200168C1F826
:1031100000C02021C0F88010002180F87C1004B08D
:10312000084630BC70470000C82F0008D02F0008A8
:10313000002804BF0120704710B50446D0F8800075
:1031400028B9002084F87C00204600F029F82420CB
:10315000C4F880002068016821F001010160204668
:1031600003F040FC012808BF10BDA06A00281CBF66
:10317000204603F099FB2068416821F490414160AA
:103180002068816821F02A0181602068016841F08F
:10319000010101602046BDE8104003F0F2BB0000D1
:1031A00000B587B000210091019102910391049133
:1031B0000068A0F18041B1F588411CBF07B000BD97
:1031C0000E48816D41F400318165816D01F400315B
:1031D0000591C16C41F00201C164C06C694600F008
:1031E0000200059018200090022001900720049012
:1031F0000348FEF789FB07B000BD00000010024045
:103200000004004803F0D0F8174C0825D4F820013A
:10321000C06910F0080F07D0134804F07DF8D4F807
:103220002001056204F006FDD4F82001C06910F009
:10323000800F1CBF0C4804F018F9D4F82001C169B4
:1032400011F0200FE2D0406AC1B2074804F06EF8D6
:103250000088012804D0022808BF04F0EBFCD5E761
:1032600004F0E2FCD2E70000CC050020012908BFF1
:10327000002124D0042908BF012120D0102908BF33
:1032800002211CD0402908BF032118D0B1F5807F4E
:1032900008BF042113D0B1F5806F08BF05210ED0FF
:1032A000B1F5805F08BF062109D0B1F5804F08BF96
:1032B000072104D0B1F5803F0CBF08210921064A3F
:1032C0001830525C10440268044B595C082303FA1E
:1032D00001F1114301607047F88A0008028B000871
:1032E000012908BF002124D0042908BF012120D0D2
:1032F000102908BF02211CD0402908BF032118D083
:10330000B1F5807F08BF042113D0B1F5806F08BFED
:1033100005210ED0B1F5805F08BF062109D0B1F5B7
:10332000804F08BF072104D0B1F5803F0CBF0821B2
:103330000921084B18305B5C1844D0F800C0064BDC
:10334000595C064B8B402CEA030302FA01F1194346
:1033500001607047F88A0008028B000873000100C2
:1033600010B50446406802F0A8FAA168086110BDD3
:103370000068012102F00BBB002808BF704710B5A0
:103380000446007E012818BF10BD217B00200129C2
:1033900004D0022910D003291ED026E0A16881F8AC
:1033A00024000121606802F0B6FAE28AB4F90E1036
:1033B000606802F031FA0CE0A16881F82400002175
:1033C000606802F0A8FAE28AB4F91010606802F0AE
:1033D00023FA50B1022009E0A168012081F82400FD
:1033E000A068D4F812100161F4E70320207610BD24
:1033F00001230373C181C28203764376704702239F
:1034000003730182C2820121017600214176704757
:10341000006802F08ABA10B5406802F064FABDE8AC
:10342000104002F080B9407E7047806800687047A5
:10343000806840687047027B0121012A04D0022A7B
:1034400007D0032A0AD00FE0B0F90E0000280BDAEB
:1034500008E0B0F91000002806DA03E0B0F9120025
:10346000002801DA4FF0FF31084670478068C068D5
:103470007047806800697047027B0021012A08BFFD
:10348000B0F90E1008467047406802F020BA006894
:1034900002F076BA8068B0F91E0070478068D0F8F4
:1034A0001A0070478068D0F8160070478360C0E942
:1034B000001200210173C1810182C182017670472F
:1034C00003220273418209148182012101760021C5
:1034D000417670478268518280688182704710B55A
:1034E00004460068032102F052FA00281CBF0121A3
:1034F000217610BD0068072102F049BA406802F049
:1035000010BA0000014661F30F0044F6E61211FB09
:1035100002F244F6E61311FB23F10A441144494236
:10352000C913B1F5004FA8BF47F6FF7104DA11F5D2
:10353000004FB4BF054909B261F31F4011F5004FB8
:1035400004BF48F2010161F31F4070470080FFFF94
:1035500070B50546084600F059F82AB203B212FBCE
:1035600003F14FEA254C05141CFB05F0081AC013A3
:103570001649B0F5004FA8BF47F6FF7004DA10F502
:10358000004FB4BF084600B260F30F04104E10F5B0
:10359000004F08BF66F30F0412FB05F01CFB03F29B
:1035A0001044C013B0F5004FA8BF47F6FF7103DA0F
:1035B00010F5004FA8BF01B2204661F31F4011F57E
:1035C000004F08BF66F31F4070BD00000080FFFF82
:1035D0000180FFFF10B50446084600F017F814FB01
:1035E00000F12214031412FB03FC61444FEAE13C96
:1035F00029466CF30F0114FB03F312FB00F0C01A11
:10360000C01360F31F41084610BD00000449034A7F
:103610000A60A0EB82204860886870474000600024
:10362000000C0240F8B58C460446DDE90710069F01
:10363000C4F830C0C4E9300108481E461546009061
:10364000074B084A21466046FCF726FFE763C4E9BA
:103650000D56204600F096FBF8BD000069360008C4
:10366000713600087D3D000810B500F08BFB10BDE1
:103670002DE9F04105468CB00020984614460E46D0
:103680008DF804004F0912D07A1E0021284604F05C
:10369000E9FA002808BF0B2000F05082D5F8C400DA
:1036A00006F01F0618B17A1E002104F0DBFA132E73
:1036B00080F04C83DFE806F0BE0AACBDBCBCBBBAF0
:1036C000B9B8B7B6B5B4BCBCBCBCBE002678052042
:1036D0008DF80800472E70D028DC0F2E7ED00BDC32
:1036E0000F2E6BD2DFE806F055929263927A7A7AC7
:1036F0007A7A7A7A7A7A7A00172E6FD009DCA6F174
:10370000100007285AD2DFE800F0727281816969DF
:1037100069001D2E5BD004DC182E5FD01C2E4ED00D
:1037200074E0412E5AD0462E61D06FE0652E55D000
:103730001EDC572E52D00EDC542E4FD006DC482E05
:1037400055D04F2E18BF532E48D05FE0552E18BFCE
:10375000562E5BD142E05B2E49D004DC582E18BFB8
:10376000592E53D13AE0612E18BF642E4ED135E068
:10377000A6F17400152849D2DFE800F0193939396B
:103780003939484848393948484848484848303025
:103790003000647831462246D5F8C40004F062FA5D
:1037A00022463146284604F05DFA00F02ABA6278D3
:1037B0003146284604F056FA23E218E026E0627803
:1037C0000021D5F8C40004F048FA012019E262781B
:1037D0000121D5F8C40004F040FA7BE16078A178BB
:1037E00000EB01223146284604F03CFA09E26078F9
:1037F000A178227900EB0120E178090401EB026154
:1038000042183146284604F02DFAFAE1022095E1EB
:10381000217803208DF80800892980F08E810AE044
:10382000DCE174E25CE24AE221E2EDE1C3E193E132
:103830008CE287E11AE288007844406887440000FF
:1038400024020000BE020000240200002402000046
:10385000BE020000980200009802000098020000DA
:1038600098020000980200009802000098020000F0
:1038700098020000980200009802000098020000E0
:1038800098020000980200009802000098020000D0
:1038900098020000980200009802000098020000C0
:1038A00098020000980200009802000098020000B0
:1038B0004802000074020000BE02000098020000EE
:1038C000980200009802000024020000FA020000A2
:1038D000FA020000FA020000FA020000FA020000F8
:1038E000FA020000FA020000FA020000FA020000E8
:1038F000FA020000FA020000FA020000FA020000D8
:10390000FA020000FA020000FA020000FA020000C7
:10391000FA020000FA020000FA020000FA020000B7
:10392000FA020000FA020000FA020000FA020000A7
:10393000FA020000FA020000FA020000FA02000097
:10394000FA02000098020000FA020000FA020000E9
:10395000FA020000FA020000BE020000BE020000EF
:10396000BE020000980200009802000098020000C9
:103970009802000024020000BE020000980200002D
:1039800098020000980200009802000098020000CF
:1039900098020000980200009802000098020000BF
:1039A000980200009802000024020000BE020000FD
:1039B000FA0200009802000098020000980200003D
:1039C0009802000098020000FA020000FA020000CB
:1039D0009802000098020000240200002402000067
:1039E000BE020000BE020000BE020000BE020000D7
:1039F000BE020000240200009802000098020000AD
:103A0000BE020000FA0200009802000098020000C6
:103A100024020000BE020000BE020000BE02000040
:103A2000BE020000BE020000BE020000BE02000096
:103A3000BE020000BE020000BE020000BE02000086
:103A400024020000FA02000024020000E402000048
:103A5000E4020000E4020000980200009802000066
:103A60009802000001AA284603F0B0FD00909DF8DE
:103A70000400002800F07581D5E90C0C01236A468A
:103A8000F02100F040B900BFD5F8C400002800F0D4
:103A90005F81002103F090FD8DF80000D5E90C0C4A
:103AA00001236A46F021E04701208DF804000CB0A4
:103AB000BDE8F081D5F8C400002800F0498101215B
:103AC00003F07AFD8DF80000D5E90C0C01236A465D
:103AD000F021E047012094E001AA284603F076FD9A
:103AE00000909DF80400002800F03B81D5E90C0C03
:103AF00002236A46F021E0470CB0BDE8F08101AA3C
:103B0000284603F063FD00909DF80400002800F0B3
:103B10002881D5E90C0C04236A46F021E0470CB05B
:103B2000BDE8F08101AA284603F050FD00909DF801
:103B300004000028EDD100F014B903208DF808002E
:103B400000F006B9217807208DF80800284603F018
:103B5000D9FC8DF80400FBE0002004A902460A54B9
:103B6000401CC0B22028FAD3002005E00B18401CEE
:103B7000C0B2DA701D2804D2D5F8C020125C092A20
:103B8000F4D1D5F8C010421D20238A5C8DF8102096
:103B9000C21D0930895C8DF81110D5F8C01004AA37
:103BA000085C8DF81200D5E90C0CF021E0470120EB
:103BB0008DF80400CFE020796179E37800EB0120F3
:103BC00082B22078617800EB0120A178090401EB32
:103BD00003610144284603F0CDFC12E020796179AD
:103BE000E37800EB012082B22078617800EB0120BD
:103BF000A178090401EB0361084401B2284603F0EF
:103C0000D1FC8DF80400A3E006A80090217807AB52
:103C100003AA284603F0A8FFBDF91C005449C0EBD5
:103C20000010800081FB00108110A1EBE0708DF886
:103C30001000010A8DF81110010C8DF81210000E01
:103C40008DF81300BDF818008DF81400000A8DF8E7
:103C50001500BDF80C008DF81600000A8DF817004D
:103C6000D5E90C0C082304AAF021E04770E0E079C4
:103C7000227AA37800EB022082B2607894F804C024
:103C800000EB0320E37821781B0403EB0C6318445A
:103C900000EB80004300DFF8DCC00020CCFB030316
:103CA0005811A0EBE37003B2607994F806C000EB02
:103CB0000C2000B20090284604F0F8F8A1E7217823
:103CC0006078E27801EB002001B2A07800EB0220DE
:103CD00002B2284603F0B4FF01208DF804003AE058
:103CE0000C208DF8080004948DF81480224904A853
:103CF00003F06AFC8DF8040050B31F48F0210379EB
:103D00000268D5E90C0CE0470CB0BDE8F08100205A
:103D100004AA04E01154401CC0B220280DD2D5F8EA
:103D2000C010095C0029F5D1202838BF002104D239
:103D30001154401CC0B22028FAD3D5E90C0C202322
:103D4000F021E04701208DF8040004E00120F5E6B1
:103D50009DF8040028B10023D5E90C0C1A46F02187
:103D6000D1E7D5E90C0C012302AAFF21CBE7000023
:103D700067666666898888880C00002010B500F0A8
:103D800001F810BD10B50446006BE16B8847802038
:103D900084F8C800A16B206BBDE810400847000004
:103DA00001480068FFF773BB040000200648007854
:103DB000002808BF704710B500F008F802F002FDB7
:103DC000BDE8104003F010BF0807002010B50E4CEE
:103DD0002078012818BF10BD608800281CBF6088AB
:103DE000401E02D102F09CFB01206080A08810B12F
:103DF000A088401EA080E088002808BF10BDE08891
:103E0000401EE08010BD0000080700200148006847
:103E1000FFF765BB0400002001480068FFF76ABB9C
:103E2000040000202DE9F34F81B05A4801F0AAFDAB
:103E3000594E002406F12C01347058480860A1F155
:103E400008085748C8F8000000F04EFD04F034FDA3
:103E5000544800F072F906F1100B5248CBF80000FC
:103E600006F10C0550482860504802F03BF8DBF89A
:103E700000104E4A286801F03EFD4D4804F078F9E4
:103E8000D8F8000000904B4B494A4B48296801F094
:103E9000ADFB4A4800F051F9494800F04EF905F1F0
:103EA00008094648C9F8000005F10C0A4448CAF858
:103EB00000004448F06101F02BFC05F11C01424870
:103EC0000860F169414FC0E94371414800F00AF9C7
:103ED00005F114003E49016005F124013D480860E8
:103EE00001F0DBFA0020FCF7F9FA012087F8240042
:103EF000286801F0E2FC3861286801F0DEFC00145B
:103F0000B88207F128002F1FA0F12803386005F1BF
:103F100028012A68FFF7CAFA286801F0DEFC3B682E
:103F2000014600221846FFF763FA019839680160DC
:103F30002948DBF800100160D9F800104160DAF878
:103F40000010C0E90214D8F8001001611A4941615B
:103F50001649C0E90614164901622968416205F153
:103F60002801816214390968C162F169C0E90C1441
:103F700005F11C0184630968C0E90F14446484647A
:103F8000C4640465029908600120307003B0BDE884
:103F9000F08F00003C0700200807002018050020D3
:103FA0005802002028010020AC0100200803002056
:103FB000D002002030040020E00100205401002045
:103FC000800100206C04002014000020C40900209F
:103FD0004404002000050020080A0020B0F8003149
:103FE000002220F81310B0F80031A0F802315B1C59
:103FF0009BB2A0F80031802B24BF0023A0F8003131
:104000005FF0000330F913C05B1C9BB26244802B4D
:10401000F8D3D31702EB5362D211A0F8042108465B
:10402000704700210A4620F81120491C89B28029D6
:10403000F9D3A0F80021A0F802217047B0F90401DB
:104040007047000008B5FEF7E3F84FF4FA61B0FBE3
:10405000F1F0FEF7A5FB0749081FFFF7E3FE04F0A8
:10406000C7FB044B04481A1F00900121101F03F0E6
:1040700039FF08BD080000208A89000810B50446F1
:104080000078002818BF002012D194F8260001F013
:10409000B5F8A0F57F41FF3907D0218B238A4A1E4E
:1040A00003FB0200B0FBF1F02082204600F02CF868
:1040B000E08280B210BD00210182704701780029A2
:1040C00018BF808A01D000B27047018A026A891A3B
:1040D000B0F91E20808C5143CA1701EB124100EB4E
:1040E0002140F0E710B50446007820B10020E082BE
:1040F000608A208210BD201D01F0E0F884F82600BF
:104100002046FFF7D8FF10BD018A428B914284BF41
:1041100008207047828B8A428CBF0020C08A70477B
:10412000B0F922007047B0F906007047408B704725
:10413000B0F904007047008B704701888180418886
:10414000C180018C4184002181608162704781605F
:10415000704741847047C18070478180704700007C
:1041600070B4B0F90420002402FB01F6B0F9062077
:10417000B0F914C0B0F91630002A04BF00218160E4
:1041800014D085684A43A91805D5002DC4BF002A5C
:104190006FF0004103E0002DBCBF002A0F49C26848
:1041A0008A42A5BF0269914282608160827F8168F4
:1041B000057F41FA02F246FA05F52A446245C4BF7A
:1041C000ACEB0204624603DC9342C4BF9C1A1A465D
:1041D0002144816070BC10B2704700000100008073
:1041E00070B5D0F80C110446C868D1F8161010FB51
:1041F00001F210FB3121C81701EB10400514D4F86F
:10420000100103F0FBFED4F8081148434FF4167177
:1042100090FBF1F0684300EB40000849400081FB4F
:1042200000108110A1EBE071C81701EB10400114E0
:104230002046BDE87040FFF7D1BE000067666666A5
:10424000C169084770B50446002511B1012908D09D
:1042500017E000F007F9B4F85200A4F8440080B960
:104260000BE0B4F84400002808BF012509D0401E27
:104270000004000CA4F8440003D1216920468847BB
:104280000125284670BD4268104730B4038E0AB23B
:1042900053430A14B0F850104A435200524202EB02
:1042A000030CA2EB03030CEBDC7C03EBD3735FEAA0
:1042B0006C0C4FEA63034FEA910153D5002B18DAD7
:1042C000042280F83A20ACEB0302D41702EB9432BC
:1042D00001EBA241DA1703EBD23201EB62434FEA62
:1042E000EC720CEBD232A1EB624CA0F83CC0C1875F
:1042F0006CE0002A1BDC4FF0030C80F83AC0A2EB04
:10430000030C4FEAEC740CEB943C01EBAC414FEA2C
:10431000E37C03EBDC334FEAE27C01EB634302EB2B
:10432000DC32A3EB624CA0F83CC0C38717E0022349
:1043300080F83A30ACEB0203DC1703EB943301EB6B
:10434000A3414FEAEC730CEBD333A1EB634CD317CF
:1043500002EBD3320CEB62438387A0F83EC0A0F897
:10436000401052E0002B17DB012280F83A20ACEB22
:104370000302D41702EB943201EBA241DA1703EBEC
:10438000D23201EB62434FEAEC720CEBD2328387FC
:10439000A1EB624CC18736E0002A1ADC052380F8C5
:1043A0003A30ACEB0203DC1703EB943301EBA3418F
:1043B0004FEAEC730CEBD333A1EB634CD31702EB56
:1043C000D33281870CEB6243A0F83EC0A0F84030A6
:1043D0001BE04FF0000C80F83AC0A2EB030C4FEA50
:1043E000EC740CEB943C01EBAC414FEAE37C03EB47
:1043F000DC3301EB63434FEAE27C02EBDC32818782
:10440000A3EB624CC387A0F840C089B29AB2418640
:1044100082861FFA8CF3C386B0F84EC0BCF1010F40
:1044200002D0816930BC0847B0F948C0BCF1000F28
:10443000B0F854C0CCBF6144A1EB0C014186B0F987
:104440004A1000291FFA8CF1CCBF1144511A818601
:10445000B0F94C1000291FFA8CF1CCBF1944591A3D
:10446000C186DEE781680847816882B021F03F019C
:1044700021F0204181608168C1F3007141BB8168F6
:1044800021F03F0121F0004141F0805181602D4930
:104490002D4A0968B1FBF2F101910091C1B1B1F16E
:1044A000004F4AD20029D8BF002105DD11F00101DB
:1044B00002D0019A521E0192009A491C521C91424C
:1044C00006DA019B891C5B1E5B1E01939142F8DB9F
:1044D000816821F03F0121F0404141F000418160BD
:1044E0008168C90FFCD1016811F0010F0BD18168FF
:1044F00021F03F0121F0004141F00101816001689C
:1045000011F0010FF3D0816821F03F0121F000414B
:1045100041F008018160816821F03F0121F00041F4
:1045200041F020018160C16821F4001121F00041B7
:1045300041F40011C16002B070470199491E019118
:10454000FCD1C5E768070020400D030090F870100B
:1045500091B9416F91F8BA20022A0DD10A6AB1F8D7
:10456000AC109162416F4A6AB1F8AE109162426F2D
:10457000916AB2F8B0208A62012180F86E1046304C
:104580007047416F89684A6C42F480624A64012135
:1045900080F86F1080F87010463070472DE9F047B2
:1045A0000446406F0026D0E90185D0F80090E6650A
:1045B0002666666684F86C60286A20F0550020F450
:1045C000A0602862514961605149A1618021A4F82D
:1045D0006A10042784F86D70204684F83A7000F061
:1045E0003EFD4C48696801407029FBD1D9F80800AC
:1045F00020F03F0020F0004040F00800C9F808001B
:10460000D8F8080020F03F0020F0004040F00800FB
:10461000C8F80800606F04F16C0304F1380190F8E9
:10462000BB20284604F07EF9204600F0EBFC84F81D
:104630006C603948606084F86D6084F83A602046A8
:1046400000F00DFD606F04F16C0304F1380190F887
:10465000BB20284604F066F9204600F0D3FCE06D4C
:1046600030490009E065206E00092066606E00098F
:1046700060662A4860602A48A0610A7805F118003F
:1046800002EB000CDCF8008001F10A02082392F82A
:10469000009003FA09F928EA0908CCF8008091F89B
:1046A00002C08444DCF8008092F8029003FA09F911
:1046B00028EA0908CCF800800979084401681279D1
:1046C00003FA02F291430160B4F868006863B4F839
:1046D0006800A863B4F86800E86301212846FEF783
:1046E000C5FD10212846FEF7C1FD4FF48071284614
:1046F000FEF7BCFD296A40F255500843286284F851
:104700003A7084F87060BDE8F087000049480008FE
:10471000D94E000870000002A1480008294700088F
:104720000D4F0008F88A000870B490F83AC0436F43
:104730004C2404EB8C049A681C592568642404EB0F
:104740008C041B591C68536823F0700323F000731A
:1047500053603C4A530CBCF1060F64D2DFE80CF006
:104760001D404003031DD0F85CC0ACEB050C1CF5EC
:10477000004FD8BF0A8005DDBCF5004FACBF0B80F1
:10478000A1F800C0D0F860C0ACEB040C1CF5004FE1
:1047900045DDBCF5004F3DDA43E0D0F860C0ACEB3E
:1047A000050C1CF5004FD8BF4A8005DDBCF5004F55
:1047B000ACBF4B80A1F802C0D0F864C0A4EB0C0CD5
:1047C000B1F90240ACEB040CBCF5004FA8BF0B8064
:1047D00029DA1CF5004FD4BF0A80A1F800C022E0FE
:1047E000D0F85CC0ACEB050C1CF5004FD8BF0A80BC
:1047F00005DDBCF5004FACBF0B80A1F800C0D0F8C0
:1048000064C0A4EB0C0CB1F90040ACEB040CBCF59B
:10481000004F01DB4B8006E01CF5004F01DC4A80B5
:1048200001E0A1F802C00A88A0F848204A88A0F850
:104830004A200A88498811444942A0F84C1070BCAB
:10484000704700000180FFFF30B490F86D40426F68
:104850004FF04C0C0CEB840C936852F80CC0DCF855
:1048600000C0642505EB8404125912685C6824F0CA
:10487000700424F000745C6090F86C30102B0AD245
:10488000C36D6344C365036E1A44026690F86C20DE
:10489000521C80F86C2000200880488030BC704793
:1048A00010B4436F90F86DC0642404EB8C0C9A68CC
:1048B00053F80C301B68D2F804C02CF0700C2CF0AC
:1048C000007CC2F804C090F86C20102A07D2426E17
:1048D0001A44426690F86C20521C80F86C2000202C
:1048E0000880488010BC70472DE9F04F0546406FA6
:1048F00083B0D0E90B13D0E9032AD0E90687D0F8BA
:1049000014900293436B0193836B0093D0E9004BA7
:104910008668606820F0040060600420206063689E
:1049200023F02003636020232360DBF804C02CF015
:10493000040CCBF804C0CBF80000DBF8040020F036
:104940002000CBF80400CBF800308148A6F180436A
:10495000B3F5963303690CBF43F4006343F400538B
:1049600003618AB1106818B1036843F00103036062
:10497000506818B1036843F001030360906818B1F0
:10498000026842F001020260BAF1000F15D0686FB0
:1049900090F8BD20012A04D0B0F8B620C06B00F01A
:1049A000F1FADAF8000040F00100CAF80000DAF885
:1049B000000040F00040CAF80000B9F1000F16D026
:1049C000686F90F8BE10012905D0B0F8B620006CD1
:1049D000029900F0D7FAD9F8000040F00100C9F8B8
:1049E0000000D9F8000040F00040C9F80000B8F11C
:1049F000000F16D0686F90F8BF10012905D0B0F8ED
:104A0000B620406C019900F0BDFAD8F8000040F0E3
:104A10000100C8F80000D8F8000040F00040C8F8D5
:104A2000000097B1686F90F8C010012905D0B0F868
:104A3000B820806C009900F0A5FA386840F00100B9
:104A40003860386840F000403860A06810F0010F0E
:104A500008D12046FFF708FD40202060606840F044
:104A600040006060DBF8080010F0010F04BF5846FA
:104A7000FFF7FAFC344630684FF47A7720F00100F3
:104A80003060706820F0700020F0007070600121CC
:104A90003046FEF7EBFB10212046FEF7E7FB4FF414
:104AA00080712046FEF7E2FB4FF480512046FEF76E
:104AB000DDFB606940F001006061686F90F8C11033
:104AC000022903D095F8461099B126E090F8C2105B
:104AD000012904BF90F8BB00032811D14FF0010059
:104AE0002063606940F0010060614FF003002063C3
:104AF00006E090F8BB00012802D0032805D00CE0A6
:104B0000B5F86800401E606207E00120206360691C
:104B100040F001006061032020636FF0800020619D
:104B2000686F90F8BC00002818BF6FF4807108D03F
:104B30002069C0F3002000281EBF002F21617F1EC6
:104B4000F6D1E06840F08000E06003B0BDE8F08F8F
:104B5000002004E0002190F86F300A46012B04BFCA
:104B6000022180F86F2090F86E30012B04BF41F0D5
:104B7000400180F86E2008467047000070B5054679
:104B8000406F846895F84700012818BF70BD602207
:104B900001212046FEF7A4FB206A40F001002062BC
:104BA000686F90F8BA00012804BF206A40F0040042
:104BB00005D0022804BF206A20F0040000D1206242
:104BC000B5F8680040086063602210212046FEF7B7
:104BD00087FB206A40F010002062686F90F8BA00EE
:104BE000012804BF206A40F0400005D0022804BF1D
:104BF000206A20F0400000D12062B5F8680040082B
:104C0000A06360224FF480712046FEF769FB206AA2
:104C100040F480702062686F90F8BA00012804BFE9
:104C2000206A40F4806005D0022804BF206A20F486
:104C3000806000D12062B5F868004008E063064853
:104C40006860064868610648E8600648A860002079
:104C500085F8470070BD000029470008A5510008ED
:104C60005F5000080550000870B50546406F846825
:104C700095F84700002840D1602201212046FEF728
:104C80002FFB206A40F001002062206A20F004001F
:104C9000206200206063686F90F8BA00012802D09B
:104CA00002280DD019E0102211462046FEF718FB0D
:104CB000206A20F010002062206A40F040000BE0E3
:104CC000202210212046FEF70BFB206A40F0100046
:104CD0002062206A20F04000206270224FF4807130
:104CE0002046FEF7FDFA206A20F480702062206AD8
:104CF00020F480602062286EE865064868600648F7
:104D000068610648E8600648A860012085F8470009
:104D100070BD00008D4D0008914E0008D54D000873
:104D20000550000870B50446406F70228568B4F8DD
:104D300068004843000C60864FF480512846FEF717
:104D4000CFFAB4F86800B4F85610401A2864B4F8E2
:104D50005800E863608E6863686820F0700020F097
:104D6000007040F070006860032084F83A006868C2
:104D70000549084018BF0120218F012918BF70BDC7
:104D800001200021218770BD70000002426F9268EF
:104D9000536823F0700323F00073536090F83A30A7
:104DA0004FF0640C426F0CEB8303D2581268006E14
:104DB000801A074A9042D8BF104605DD47F6FF72B9
:104DC0009042A8BF47F6FF700880488070470000F7
:104DD0000180FFFF10B4426F6FF00104D2E901C1FE
:104DE00013680C610A6912F0010FFBD00C610122FB
:104DF0004A63B0F86820521F0A640A6912F0010F72
:104E0000FBD0CA6842F00102CA604A6C42F4806278
:104E10004A644A6C42F400424A64426F92F8BA40D3
:104E2000022C1ED1096A40F255542142116AB2F88F
:104E3000AC200BD08A61426F516AB2F8AE208A6111
:104E4000416F8A6AB1F8B01091620AE08A62426FDB
:104E5000516AB2F8AE208A62426F916AB2F8B0200D
:104E60008A62032180F83A10986820F03F0020F011
:104E7000004040F008009860DCF8080020F03F0097
:104E800020F0004040F00800CCF8080010BC70474B
:104E9000416F002289684A63921E0A610A6912F012
:104EA000010FFBD04A6C42F400424A64416F91F812
:104EB000BA20022A18BF70470A6AB1F8AC10916193
:104EC000426F516AB2F8AE208A62416F886AB1F8C7
:104ED000B01081627047000090F86D1080F83A10B1
:104EE000B0F86810438E491E8AB2416F89684B63DF
:104EF000838E8B63C08EC8630A6448680249084089
:104F000018BF0120704700007000000230B4446FE9
:104F1000B0F86820818FB4F8B2C0531A9BB26345D1
:104F200006D9042180F83A1091B2491E89B217E0DF
:104F3000C58F4D1BADB2B5EB430F84BFB4F8B420A1
:104F4000891A0CD8614489B2914209D34FF4807216
:104F5000A0F86A20B0F86820C1EB4201491E89B26E
:104F6000A268438E5363838E9363C08ED0631164B3
:104F700050680349084018BF012030BC704700004A
:104F800070000002C0F3035301EB8303D3F808C0A1
:104F90006FF30F1C4CEA02029A604A6800F00303A8
:104FA0001A434A6000F01002012000FA02F2086879
:104FB000124B32EA000C12480FD0D1F800C04CEA74
:104FC00002020A601968B1FBF0F0C00008BF704728
:104FD000B0F1004F38BF70470DE01968B1FBF0F039
:104FE00010EB400008BF7047B0F1004F00D270478F
:104FF000401EFDD17047401EFDD17047680700205C
:1050000080841E00416F8968CA6822F00102CA606C
:10501000002280F842204A6C22F400424A6490F850
:105020007020012A12D0426F92F8BA30022B0DD1B3
:10503000136AB2F8AC209A62436F5A6AB3F8AE3082
:105040009362426F906AB2F8B02082626FF0010200
:105050000A61086910F0010FFBD00A61704710B4B3
:10506000416F0022896880F84220B0F86820520819
:105070004A63B0F8682052088A63B0F86820520882
:10508000CA63B0F86820521F0A646FF001030B6115
:105090000A6912F0010FFBD00B614A6C42F4806286
:1050A0004A644A6C42F400424A64426F92F8BAC0C1
:1050B000BCF1020F28D1D1F820C040F255541CEAAF
:1050C000040FD2F820C0B2F8AC200FD0CCF81820D2
:1050D000D0F874C0DCF82420BCF8AEC0C2F818C008
:1050E000406F826AB0F8B00090610DE0CCF82820E3
:1050F000426FD2F824C0B2F8AE20CCF82820426F1C
:10510000906AB2F8B02082620B61C86840F001007A
:10511000C86010BC704770B4416FD1E90034D1E968
:1051200002C1D1B1DA6C002AFCD190F83A2001EB2F
:105130008205EA682AB1ED6B166826F48676354357
:10514000156090F83A2001EB8202516A29B1526D44
:105150000D6825F486752A430A6090F83A207C256C
:10516000416F05EB8202895830F86A2F1143D964E8
:1051700010F8302CD0F80A10942303EB82028958DF
:1051800002881143E164DCF8041021F0700121F081
:10519000007141F07001CCF80410802120F824192E
:1051A00070BC7047416F01226FF00103896880F87D
:1051B0004220426F9268136100224A638A63CA6385
:1051C0000A6912F0010FFBD04A6C42F400424A64B3
:1051D000416F91F8BA20022A18BF70470A6AB1F8E5
:1051E000AC109161426F516AB2F8AE208A61406F93
:1051F000816AB0F8B0008861704700001C4910B4A3
:1052000051F820204FF0010C136812790CFA02FCBF
:105210004CEA826C02EB4204092A91BF4CEA045228
:10522000144A02EB04524CEA020288BF42F00072B8
:10523000D3F830C0C2F384622CF4F86C4CEA8212CA
:105240001A6351F820201268136C936823F03F030F
:1052500023F0004343F00403936051F820000068FA
:10526000016811F0040FFBD0006C10BC80B27047D5
:105270005C0A0020000020FE10B50E4C607801286A
:1052800018BF10BD2078FFF7B9FF608001460220EB
:105290006070094A207852F83030002B08BF10BDEA
:1052A0004FF0000C02EBC00284F801C05268BDE868
:1052B00010401847420700206C0A002030B4FF213C
:1052C000DFF81CC1002200BF5CF82230EBB11D7971
:1052D0000479A54205D11B680468A34204BF1146A6
:1052E0000422521CD2B2042AEED3042974D23D4BBC
:1052F0004CF82100002243F831200268936813F033
:10530000010F4FF0040304D03AE0042988BF11468E
:10531000E7E7D2F804C02CF0040CC2F804C002681D
:1053200013600268D2F804C02CF0200CC2F804C04C
:1053300002684FF0200CC2F800C00268D2F808C022
:105340002CF03F0C2CF0404C4CF0004CC2F808C044
:10535000D0F80020D2F808C05FEADC7CFAD109E07E
:10536000D2F808C02CF03F0C2CF0004C4CF0010C93
:10537000C2F808C00268D2F800C01CF0010FEFD0DC
:10538000D2F830C02CF00F0CC2F830C002790124E2
:10539000092A04FA02F4D0F800C044EA826402EB5D
:1053A000420298BF44EA025205D90F4D05EB025262
:1053B000224342F00072846803EAD2506044436999
:1053C000C2F304524FF0070C0CFA02FC23EA0C0360
:1053D00004FA02F21A43426130BC084670470000EA
:1053E0005C0A00206C0A0020000020FED0E90213B5
:1053F0004269012B05D9D0F810C0A3F10103614423
:1054000005E005D141684FF0000301FB02F1C360E4
:10541000816091FBF2F070472DE9F05F04460E4683
:10542000806861695FEA020990FBF1F74FF0010AB9
:1054300011D0F01B804602F005FF8346384602F08B
:1054400001FF0546304602F0FDFE5D450CD958458A
:1054500088BF58460BE0304602F0F4FE60617043AE
:10546000A0600020E06014E0854238BF284600FBC1
:1054700007F16061C4E9016121684FF47A7201FBB0
:1054800009F1B1FBF2F1491C08FB00F090FBF1F0CF
:10549000E16020615046BDE8F09F002181604160DD
:1054A000C160016101214161704701460020C96866
:1054B000002908BF012070472DE9F0470446002667
:1054C000D4E91A89C18080F8556080F8586080F866
:1054D000536000F10C0580F854600F46484602F016
:1054E00031FE0021404600F016FA608810FB07F0FC
:1054F00001B2484602F07EFE00221146404600F00E
:105500008BF92A88A88810FB07F001B2404600F00A
:1055100083F92A88688810FB07F001B2484602F038
:105520002BFE2888218848434FF47A71B0FBF1F0B4
:10553000401CA080A868A06084F85760BDE8F08790
:1055400070B504468088012520B1401E0004000C7F
:10555000A08028D1A068002808BF002523D081881A
:10556000E28811FB02F1028809B2A06E00F054F942
:10557000A068E288418811FB02F1028809B2E06E5E
:1055800002F0FAFDA1682288088850434FF47A722D
:10559000B0FBF2F0401CA0808868A06094F858002E
:1055A000401C84F85800284670BD0146002091F840
:1055B000582091F849108A4228BF0120704790F87E
:1055C0004800704701EB410100EB81008089704782
:1055D00001EB410100EB8100B0F90E00704701EBD7
:1055E000410100EB8100B0F91000704730B400F1C8
:1055F0000C046830029D2EC04FF0000C00F824CC43
:1056000000F823CC6146783804E0A4680CF101026C
:1056100002F0FF0C002C18BFBCF1050FF5D30CEB0A
:105620004C0200EB8202916080F848C0018864223D
:1056300051434FF47A72B1FBF2F180F8561030BC4E
:10564000704701EB410100EB81008281704701EB63
:10565000410100EB8100C281704701EB410100EB89
:10566000810002827047000070B5044690F8260061
:10567000FFF7C4FDA0F57F418446FF3921D094F89F
:105680002510206A20F811C00021228B0846002A2C
:1056900088BF236A07D900BF33F81050401CC0B23E
:1056A00029448242F8D8B1FBF2F0E080A4F804C0AB
:1056B00094F82500511E8842B4BF401C002084F895
:1056C0002500204600F002F8208170BDC188428B81
:1056D000914284BF02207047808B88428CBF042097
:1056E00000207047418B828B038B11444A080021B4
:1056F000002B07D9036A23F81120491C038B89B2B8
:105700008B42F7D88280C280002180F82510704734
:1057100010B504460C30FFF7D1FD84F82600204672
:10572000FFF7E0FF10BDB0F90C007047B0F90400BE
:105730007047B0F910007047B0F90C10B0F91400C0
:10574000C1EBC13191FBF0F000B2704730B4B1F958
:105750000050012490F803C000230278002DBABF46
:10576000694289B20988858A8D4238BF0123C58A7A
:105770008D4288BF0123B0F912100029BABF4942F7
:1057800089B2418A058B8D4228BF002B04D0624527
:105790003CBF511CCAB202E0624538BF00226245DC
:1057A00008BF00240270204630BC704770B5054623
:1057B000007800280CBFAC686C68E968012904D93E
:1057C000AA69A1F10101144405E005D169884FEAF5
:1057D00001444FF00001E960012805D0E01704EB17
:1057E00010400014AC6070BDE01704EB10400614CC
:1057F0006869FFF798FF301A01B22869FEF7B0FC1C
:105800000104C5E9014170BD0178012918BF704745
:1058100000690021FEF79BBC2DE9F04104460078A9
:1058200017460D46012660B16068C11700EB1140B4
:10583000E18B0014A942A4BFB4F924108D4212DAFE
:105840000FE0204600F051F8E18CA94205DAB4F9E6
:10585000281000268D421CDA03E0B4F928108D428E
:1058600008DA002615E0218C8D42BCBFB4F9221065
:10587000A942F6DB87B16580A18B4FF47A72794338
:10588000B1FBF2F1491C281A000490FBF1F0E16031
:10589000A0613046BDE8F08121782804012914BFB9
:1058A000A06060600020E060F2E710B50446406947
:1058B000FFF739FF0004606010BD0146C28D098EFC
:1058C00062F30F0061F31F407047C08B7047406860
:1058D000C11700EB114000147047B0F92C0070475D
:1058E000B0F924007047406970478068C11700EB29
:1058F000114000147047C0E9041290F82A1001709A
:10590000818D09044160C18D0904816000214180BD
:10591000C1608161704701700021C16070474161C1
:1059200070470021C16081617047027800210B2A15
:1059300004D10921017000218180012108467047AE
:10594000B0F802C003784CEA010C2CEA0202428053
:10595000B0F804C00A2B4CEA0101818005D012B1D5
:105960000A2101700B4618467047002AFBD10B2113
:1059700001700B46F7E78188408841EA0040704794
:10598000007870470021017041808180704710B518
:1059900002780024152A6CD2DFE802F00E1B3033A7
:1059A000525E636669706B6B0B21262B3D424D582E
:1059B0004800002966D05CE003291CBF01290C299E
:1059C00060D0072903D000228021FFF7B9FF2046CD
:1059D00010BD07291CBF0D290E2953D049E00E29FF
:1059E00018BF07294ED044E00F2918BF072949D016
:1059F0003FE0022918BF072944D03AE0072941D0E7
:105A000037E0072918BF10293CD004291CBF1129F1
:105A1000012937D02DE0112918BF072932D028E0FD
:105A200012291CBF072914292CD022E0122918BFE3
:105A3000072927D01DE0042918BF072922D018E024
:105A400013291CBF072905291CD012E004291CBFFB
:105A50000729052916D00CE0062918BF072911D0FF
:105A600007E007290ED004E008290BD001E009293E
:105A700008D0032918BF0129A9D0A2E7002918BF1F
:105A80000C29F6D14FF001040170A0E770B504466F
:105A900015460E463430FEF74BFB308004F13400DF
:105AA000FEF741FB288070BD006800213430FEF70E
:105AB0004EBB10B490F8F4C090F80F110CF0FF0337
:105AC00000EB430390F80E21B3F97430D0F808418D
:105AD000511A234408BFB0F90C1107D06144914218
